{
  "_format": "hh-sol-artifact-1",
  "contractName": "RPS",
  "sourceName": "contracts/RPS.sol",
  "abi": [
    {
      "inputs": [],
      "stateMutability": "nonpayable",
      "type": "constructor"
    },
    {
      "anonymous": false,
      "inputs": [
        {
          "indexed": true,
          "internalType": "address",
          "name": "account",
          "type": "address"
        },
        {
          "indexed": true,
          "internalType": "address",
          "name": "operator",
          "type": "address"
        },
        {
          "indexed": false,
          "internalType": "bool",
          "name": "approved",
          "type": "bool"
        }
      ],
      "name": "ApprovalForAll",
      "type": "event"
    },
    {
      "anonymous": false,
      "inputs": [
        {
          "indexed": false,
          "internalType": "uint8",
          "name": "version",
          "type": "uint8"
        }
      ],
      "name": "Initialized",
      "type": "event"
    },
    {
      "anonymous": false,
      "inputs": [
        {
          "indexed": false,
          "internalType": "address",
          "name": "account",
          "type": "address"
        }
      ],
      "name": "Paused",
      "type": "event"
    },
    {
      "anonymous": false,
      "inputs": [
        {
          "indexed": true,
          "internalType": "bytes32",
          "name": "role",
          "type": "bytes32"
        },
        {
          "indexed": true,
          "internalType": "bytes32",
          "name": "previousAdminRole",
          "type": "bytes32"
        },
        {
          "indexed": true,
          "internalType": "bytes32",
          "name": "newAdminRole",
          "type": "bytes32"
        }
      ],
      "name": "RoleAdminChanged",
      "type": "event"
    },
    {
      "anonymous": false,
      "inputs": [
        {
          "indexed": true,
          "internalType": "bytes32",
          "name": "role",
          "type": "bytes32"
        },
        {
          "indexed": true,
          "internalType": "address",
          "name": "account",
          "type": "address"
        },
        {
          "indexed": true,
          "internalType": "address",
          "name": "sender",
          "type": "address"
        }
      ],
      "name": "RoleGranted",
      "type": "event"
    },
    {
      "anonymous": false,
      "inputs": [
        {
          "indexed": true,
          "internalType": "bytes32",
          "name": "role",
          "type": "bytes32"
        },
        {
          "indexed": true,
          "internalType": "address",
          "name": "account",
          "type": "address"
        },
        {
          "indexed": true,
          "internalType": "address",
          "name": "sender",
          "type": "address"
        }
      ],
      "name": "RoleRevoked",
      "type": "event"
    },
    {
      "anonymous": false,
      "inputs": [
        {
          "indexed": true,
          "internalType": "address",
          "name": "operator",
          "type": "address"
        },
        {
          "indexed": true,
          "internalType": "address",
          "name": "from",
          "type": "address"
        },
        {
          "indexed": true,
          "internalType": "address",
          "name": "to",
          "type": "address"
        },
        {
          "indexed": false,
          "internalType": "uint256[]",
          "name": "ids",
          "type": "uint256[]"
        },
        {
          "indexed": false,
          "internalType": "uint256[]",
          "name": "values",
          "type": "uint256[]"
        }
      ],
      "name": "TransferBatch",
      "type": "event"
    },
    {
      "anonymous": false,
      "inputs": [
        {
          "indexed": true,
          "internalType": "address",
          "name": "operator",
          "type": "address"
        },
        {
          "indexed": true,
          "internalType": "address",
          "name": "from",
          "type": "address"
        },
        {
          "indexed": true,
          "internalType": "address",
          "name": "to",
          "type": "address"
        },
        {
          "indexed": false,
          "internalType": "uint256",
          "name": "id",
          "type": "uint256"
        },
        {
          "indexed": false,
          "internalType": "uint256",
          "name": "value",
          "type": "uint256"
        }
      ],
      "name": "TransferSingle",
      "type": "event"
    },
    {
      "anonymous": false,
      "inputs": [
        {
          "indexed": false,
          "internalType": "string",
          "name": "value",
          "type": "string"
        },
        {
          "indexed": true,
          "internalType": "uint256",
          "name": "id",
          "type": "uint256"
        }
      ],
      "name": "URI",
      "type": "event"
    },
    {
      "anonymous": false,
      "inputs": [
        {
          "indexed": false,
          "internalType": "address",
          "name": "account",
          "type": "address"
        }
      ],
      "name": "Unpaused",
      "type": "event"
    },
    {
      "inputs": [],
      "name": "DEFAULT_ADMIN_ROLE",
      "outputs": [
        {
          "internalType": "bytes32",
          "name": "",
          "type": "bytes32"
        }
      ],
      "stateMutability": "view",
      "type": "function"
    },
    {
      "inputs": [],
      "name": "MAX_PUBLIC_SALE_MINT_AMOUNT",
      "outputs": [
        {
          "internalType": "uint256",
          "name": "",
          "type": "uint256"
        }
      ],
      "stateMutability": "view",
      "type": "function"
    },
    {
      "inputs": [],
      "name": "MAX_WHITELIST_MINT_AMOUNT",
      "outputs": [
        {
          "internalType": "uint256",
          "name": "",
          "type": "uint256"
        }
      ],
      "stateMutability": "view",
      "type": "function"
    },
    {
      "inputs": [],
      "name": "PAUSER_ROLE",
      "outputs": [
        {
          "internalType": "bytes32",
          "name": "",
          "type": "bytes32"
        }
      ],
      "stateMutability": "view",
      "type": "function"
    },
    {
      "inputs": [],
      "name": "SUPPLY_LIMIT",
      "outputs": [
        {
          "internalType": "uint256",
          "name": "",
          "type": "uint256"
        }
      ],
      "stateMutability": "view",
      "type": "function"
    },
    {
      "inputs": [],
      "name": "URI_SETTER_ROLE",
      "outputs": [
        {
          "internalType": "bytes32",
          "name": "",
          "type": "bytes32"
        }
      ],
      "stateMutability": "view",
      "type": "function"
    },
    {
      "inputs": [],
      "name": "WHITELIST_SUPPLY_LIMIT",
      "outputs": [
        {
          "internalType": "uint256",
          "name": "",
          "type": "uint256"
        }
      ],
      "stateMutability": "view",
      "type": "function"
    },
    {
      "inputs": [
        {
          "internalType": "string",
          "name": "message",
          "type": "string"
        },
        {
          "internalType": "bytes",
          "name": "signature",
          "type": "bytes"
        }
      ],
      "name": "_verifyBackendSignature",
      "outputs": [
        {
          "internalType": "bool",
          "name": "",
          "type": "bool"
        }
      ],
      "stateMutability": "view",
      "type": "function"
    },
    {
      "inputs": [
        {
          "internalType": "address",
          "name": "account",
          "type": "address"
        },
        {
          "internalType": "uint256",
          "name": "id",
          "type": "uint256"
        }
      ],
      "name": "balanceOf",
      "outputs": [
        {
          "internalType": "uint256",
          "name": "",
          "type": "uint256"
        }
      ],
      "stateMutability": "view",
      "type": "function"
    },
    {
      "inputs": [
        {
          "internalType": "address[]",
          "name": "accounts",
          "type": "address[]"
        },
        {
          "internalType": "uint256[]",
          "name": "ids",
          "type": "uint256[]"
        }
      ],
      "name": "balanceOfBatch",
      "outputs": [
        {
          "internalType": "uint256[]",
          "name": "",
          "type": "uint256[]"
        }
      ],
      "stateMutability": "view",
      "type": "function"
    },
    {
      "inputs": [
        {
          "internalType": "address",
          "name": "account",
          "type": "address"
        },
        {
          "internalType": "uint256",
          "name": "id",
          "type": "uint256"
        },
        {
          "internalType": "uint256",
          "name": "value",
          "type": "uint256"
        }
      ],
      "name": "burn",
      "outputs": [],
      "stateMutability": "nonpayable",
      "type": "function"
    },
    {
      "inputs": [
        {
          "internalType": "address",
          "name": "account",
          "type": "address"
        },
        {
          "internalType": "uint256[]",
          "name": "ids",
          "type": "uint256[]"
        },
        {
          "internalType": "uint256[]",
          "name": "values",
          "type": "uint256[]"
        }
      ],
      "name": "burnBatch",
      "outputs": [],
      "stateMutability": "nonpayable",
      "type": "function"
    },
    {
      "inputs": [],
      "name": "contractURI",
      "outputs": [
        {
          "internalType": "string",
          "name": "",
          "type": "string"
        }
      ],
      "stateMutability": "pure",
      "type": "function"
    },
    {
      "inputs": [],
      "name": "cost",
      "outputs": [
        {
          "internalType": "uint256",
          "name": "",
          "type": "uint256"
        }
      ],
      "stateMutability": "view",
      "type": "function"
    },
    {
      "inputs": [],
      "name": "enablePublicSaleState",
      "outputs": [],
      "stateMutability": "nonpayable",
      "type": "function"
    },
    {
      "inputs": [],
      "name": "enableWhitelistState",
      "outputs": [],
      "stateMutability": "nonpayable",
      "type": "function"
    },
    {
      "inputs": [],
      "name": "endSale",
      "outputs": [],
      "stateMutability": "nonpayable",
      "type": "function"
    },
    {
      "inputs": [
        {
          "internalType": "uint256",
          "name": "id",
          "type": "uint256"
        }
      ],
      "name": "exists",
      "outputs": [
        {
          "internalType": "bool",
          "name": "",
          "type": "bool"
        }
      ],
      "stateMutability": "view",
      "type": "function"
    },
    {
      "inputs": [
        {
          "internalType": "bytes32",
          "name": "role",
          "type": "bytes32"
        }
      ],
      "name": "getRoleAdmin",
      "outputs": [
        {
          "internalType": "bytes32",
          "name": "",
          "type": "bytes32"
        }
      ],
      "stateMutability": "view",
      "type": "function"
    },
    {
      "inputs": [
        {
          "internalType": "bytes32",
          "name": "role",
          "type": "bytes32"
        },
        {
          "internalType": "address",
          "name": "account",
          "type": "address"
        }
      ],
      "name": "grantRole",
      "outputs": [],
      "stateMutability": "nonpayable",
      "type": "function"
    },
    {
      "inputs": [
        {
          "internalType": "bytes32",
          "name": "role",
          "type": "bytes32"
        },
        {
          "internalType": "address",
          "name": "account",
          "type": "address"
        }
      ],
      "name": "hasRole",
      "outputs": [
        {
          "internalType": "bool",
          "name": "",
          "type": "bool"
        }
      ],
      "stateMutability": "view",
      "type": "function"
    },
    {
      "inputs": [],
      "name": "initialize",
      "outputs": [],
      "stateMutability": "nonpayable",
      "type": "function"
    },
    {
      "inputs": [
        {
          "internalType": "address",
          "name": "account",
          "type": "address"
        },
        {
          "internalType": "address",
          "name": "operator",
          "type": "address"
        }
      ],
      "name": "isApprovedForAll",
      "outputs": [
        {
          "internalType": "bool",
          "name": "",
          "type": "bool"
        }
      ],
      "stateMutability": "view",
      "type": "function"
    },
    {
      "inputs": [
        {
          "internalType": "address",
          "name": "account",
          "type": "address"
        },
        {
          "internalType": "uint256",
          "name": "id",
          "type": "uint256"
        },
        {
          "internalType": "uint256",
          "name": "amount",
          "type": "uint256"
        },
        {
          "internalType": "bytes",
          "name": "data",
          "type": "bytes"
        }
      ],
      "name": "mint",
      "outputs": [],
      "stateMutability": "nonpayable",
      "type": "function"
    },
    {
      "inputs": [
        {
          "internalType": "address",
          "name": "to",
          "type": "address"
        },
        {
          "internalType": "uint256[]",
          "name": "ids",
          "type": "uint256[]"
        },
        {
          "internalType": "uint256[]",
          "name": "amounts",
          "type": "uint256[]"
        },
        {
          "internalType": "bytes",
          "name": "data",
          "type": "bytes"
        }
      ],
      "name": "mintBatch",
      "outputs": [],
      "stateMutability": "nonpayable",
      "type": "function"
    },
    {
      "inputs": [],
      "name": "pause",
      "outputs": [],
      "stateMutability": "nonpayable",
      "type": "function"
    },
    {
      "inputs": [],
      "name": "paused",
      "outputs": [
        {
          "internalType": "bool",
          "name": "",
          "type": "bool"
        }
      ],
      "stateMutability": "view",
      "type": "function"
    },
    {
      "inputs": [
        {
          "internalType": "uint8",
          "name": "numberOfTokens",
          "type": "uint8"
        }
      ],
      "name": "publicMint",
      "outputs": [],
      "stateMutability": "payable",
      "type": "function"
    },
    {
      "inputs": [],
      "name": "publicMintedByAddress",
      "outputs": [
        {
          "internalType": "uint8",
          "name": "",
          "type": "uint8"
        }
      ],
      "stateMutability": "view",
      "type": "function"
    },
    {
      "inputs": [
        {
          "internalType": "address",
          "name": "",
          "type": "address"
        }
      ],
      "name": "publicSaleAddressMintedAmount",
      "outputs": [
        {
          "internalType": "uint8",
          "name": "",
          "type": "uint8"
        }
      ],
      "stateMutability": "view",
      "type": "function"
    },
    {
      "inputs": [
        {
          "internalType": "bytes32",
          "name": "role",
          "type": "bytes32"
        },
        {
          "internalType": "address",
          "name": "account",
          "type": "address"
        }
      ],
      "name": "renounceRole",
      "outputs": [],
      "stateMutability": "nonpayable",
      "type": "function"
    },
    {
      "inputs": [
        {
          "internalType": "bytes32",
          "name": "role",
          "type": "bytes32"
        },
        {
          "internalType": "address",
          "name": "account",
          "type": "address"
        }
      ],
      "name": "revokeRole",
      "outputs": [],
      "stateMutability": "nonpayable",
      "type": "function"
    },
    {
      "inputs": [
        {
          "internalType": "address",
          "name": "from",
          "type": "address"
        },
        {
          "internalType": "address",
          "name": "to",
          "type": "address"
        },
        {
          "internalType": "uint256[]",
          "name": "ids",
          "type": "uint256[]"
        },
        {
          "internalType": "uint256[]",
          "name": "amounts",
          "type": "uint256[]"
        },
        {
          "internalType": "bytes",
          "name": "data",
          "type": "bytes"
        }
      ],
      "name": "safeBatchTransferFrom",
      "outputs": [],
      "stateMutability": "nonpayable",
      "type": "function"
    },
    {
      "inputs": [
        {
          "internalType": "address",
          "name": "from",
          "type": "address"
        },
        {
          "internalType": "address",
          "name": "to",
          "type": "address"
        },
        {
          "internalType": "uint256",
          "name": "id",
          "type": "uint256"
        },
        {
          "internalType": "uint256",
          "name": "amount",
          "type": "uint256"
        },
        {
          "internalType": "bytes",
          "name": "data",
          "type": "bytes"
        }
      ],
      "name": "safeTransferFrom",
      "outputs": [],
      "stateMutability": "nonpayable",
      "type": "function"
    },
    {
      "inputs": [],
      "name": "saleState",
      "outputs": [
        {
          "internalType": "uint8",
          "name": "",
          "type": "uint8"
        }
      ],
      "stateMutability": "view",
      "type": "function"
    },
    {
      "inputs": [
        {
          "internalType": "address",
          "name": "operator",
          "type": "address"
        },
        {
          "internalType": "bool",
          "name": "approved",
          "type": "bool"
        }
      ],
      "name": "setApprovalForAll",
      "outputs": [],
      "stateMutability": "nonpayable",
      "type": "function"
    },
    {
      "inputs": [
        {
          "internalType": "uint256",
          "name": "_newCost",
          "type": "uint256"
        }
      ],
      "name": "setCost",
      "outputs": [],
      "stateMutability": "nonpayable",
      "type": "function"
    },
    {
      "inputs": [
        {
          "internalType": "string",
          "name": "newuri",
          "type": "string"
        }
      ],
      "name": "setURI",
      "outputs": [],
      "stateMutability": "nonpayable",
      "type": "function"
    },
    {
      "inputs": [],
      "name": "supply",
      "outputs": [
        {
          "internalType": "uint256",
          "name": "",
          "type": "uint256"
        }
      ],
      "stateMutability": "view",
      "type": "function"
    },
    {
      "inputs": [
        {
          "internalType": "bytes4",
          "name": "interfaceId",
          "type": "bytes4"
        }
      ],
      "name": "supportsInterface",
      "outputs": [
        {
          "internalType": "bool",
          "name": "",
          "type": "bool"
        }
      ],
      "stateMutability": "view",
      "type": "function"
    },
    {
      "inputs": [
        {
          "internalType": "uint256",
          "name": "id",
          "type": "uint256"
        }
      ],
      "name": "totalSupply",
      "outputs": [
        {
          "internalType": "uint256",
          "name": "",
          "type": "uint256"
        }
      ],
      "stateMutability": "view",
      "type": "function"
    },
    {
      "inputs": [],
      "name": "unpause",
      "outputs": [],
      "stateMutability": "nonpayable",
      "type": "function"
    },
    {
      "inputs": [
        {
          "internalType": "uint256",
          "name": "_tokenid",
          "type": "uint256"
        }
      ],
      "name": "uri",
      "outputs": [
        {
          "internalType": "string",
          "name": "",
          "type": "string"
        }
      ],
      "stateMutability": "pure",
      "type": "function"
    },
    {
      "inputs": [
        {
          "internalType": "address",
          "name": "",
          "type": "address"
        }
      ],
      "name": "whitelistAddressMintedAmount",
      "outputs": [
        {
          "internalType": "uint8",
          "name": "",
          "type": "uint8"
        }
      ],
      "stateMutability": "view",
      "type": "function"
    },
    {
      "inputs": [
        {
          "internalType": "bytes",
          "name": "signature",
          "type": "bytes"
        },
        {
          "internalType": "uint8",
          "name": "numberOfTokens",
          "type": "uint8"
        }
      ],
      "name": "whitelistMint",
      "outputs": [],
      "stateMutability": "payable",
      "type": "function"
    },
    {
      "inputs": [],
      "name": "whitelistMintedByAddress",
      "outputs": [
        {
          "internalType": "uint8",
          "name": "",
          "type": "uint8"
        }
      ],
      "stateMutability": "view",
      "type": "function"
    }
  ],
  "bytecode": "0x60806040523480156200001157600080fd5b50600062000020600162000087565b9050801562000039576000805461ff0019166101001790555b801562000080576000805461ff0019169055604051600181527f7f26b83ff96e1f2b6a682f133852f6798a09c465da95921460cefb38474024989060200160405180910390a15b506200016e565b60008054610100900460ff1615620000dc578160ff166001148015620000ac5750303b155b620000d45760405162461bcd60e51b8152600401620000cb9062000120565b60405180910390fd5b506000919050565b60005460ff808416911610620001065760405162461bcd60e51b8152600401620000cb9062000120565b506000805460ff191660ff92909216919091179055600190565b6020808252602e908201527f496e697469616c697a61626c653a20636f6e747261637420697320616c72656160408201526d191e481a5b9a5d1a585b1a5e995960921b606082015260800190565b6141ad806200017e6000396000f3fe60806040526004361061020c5760003560e01c8062fdd58e1461021157806301ffc9a71461024457806302fe530514610274578063040c2fc314610296578063047fc9aa146102ab5780630e89341c146102c257806313faede6146102ef5780631bb6ecaf146103065780631f7fdffa14610349578063248a9ca3146103695780632eb2c2d6146103895780632f2ff15d146103a95780632fad121a146103c9578063328ae7a1146103dc57806336568abe146103fc578063380d831b1461041c5780633906f560146104315780633e9c2a80146104465780633f4ba83a1461045b57806344a0d68a146104705780634e1273f4146104905780634f558e79146104bd5780635c975abb146104ed578063603f4d52146105055780636b20c45414610520578063731133e9146105405780637f345710146105605780638129fc1c146105825780638456cb5914610597578063858e83b5146105ac5780638e1ed66d146105bf57806391d14854146105e557806398a17997146104465780639b98969414610605578063a217fddf1461062b578063a22cb46514610640578063bd85b03914610660578063caba7ffa1461068e578063d3aed92a146106a3578063d547741f146106b8578063e1223d61146106d8578063e63ab1e914610709578063e8a3d4851461072b578063e985e9c514610740578063f242432a14610789578063f5298aca146107a9575b600080fd5b34801561021d57600080fd5b5061023161022c366004612ea3565b6107c9565b6040519081526020015b60405180910390f35b34801561025057600080fd5b5061026461025f366004612ee3565b610865565b604051901515815260200161023b565b34801561028057600080fd5b5061029461028f366004612fb5565b610870565b005b3480156102a257600080fd5b50610231600181565b3480156102b757600080fd5b506102316101615481565b3480156102ce57600080fd5b506102e26102dd366004612fe9565b610895565b60405161023b9190613052565b3480156102fb57600080fd5b506102316101605481565b34801561031257600080fd5b50610337610321366004613065565b6101636020526000908152604090205460ff1681565b60405160ff909116815260200161023b565b34801561035557600080fd5b50610294610364366004613114565b6108c6565b34801561037557600080fd5b50610231610384366004612fe9565b6108d8565b34801561039557600080fd5b506102946103a43660046131ac565b6108ed565b3480156103b557600080fd5b506102946103c4366004613255565b610984565b6102946103d7366004613292565b6109a5565b3480156103e857600080fd5b506102646103f73660046132d6565b610c9a565b34801561040857600080fd5b50610294610417366004613255565b610d17565b34801561042857600080fd5b50610294610d91565b34801561043d57600080fd5b50610231600981565b34801561045257600080fd5b50610231600381565b34801561046757600080fd5b50610294610dad565b34801561047c57600080fd5b5061029461048b366004612fe9565b610dd0565b34801561049c57600080fd5b506104b06104ab366004613339565b610de2565b60405161023b9190613434565b3480156104c957600080fd5b506102646104d8366004612fe9565b600090815261012d6020526040902054151590565b3480156104f957600080fd5b5060c95460ff16610264565b34801561051157600080fd5b5061015f546103379060ff1681565b34801561052c57600080fd5b5061029461053b366004613447565b610f0b565b34801561054c57600080fd5b5061029461055b3660046134ba565b610f4e565b34801561056c57600080fd5b506102316000805160206140de83398151915281565b34801561058e57600080fd5b50610294610f5a565b3480156105a357600080fd5b5061029461109b565b6102946105ba36600461350e565b6110bb565b3480156105cb57600080fd5b50336000908152610162602052604090205460ff16610337565b3480156105f157600080fd5b50610264610600366004613255565b611399565b34801561061157600080fd5b50336000908152610163602052604090205460ff16610337565b34801561063757600080fd5b50610231600081565b34801561064c57600080fd5b5061029461065b366004613529565b6113c4565b34801561066c57600080fd5b5061023161067b366004612fe9565b600090815261012d602052604090205490565b34801561069a57600080fd5b506102946113cf565b3480156106af57600080fd5b506102946113f7565b3480156106c457600080fd5b506102946106d3366004613255565b61141c565b3480156106e457600080fd5b506103376106f3366004613065565b6101626020526000908152604090205460ff1681565b34801561071557600080fd5b506102316000805160206140fe83398151915281565b34801561073757600080fd5b506102e2611438565b34801561074c57600080fd5b5061026461075b366004613565565b6001600160a01b03918216600090815260666020908152604080832093909416825291909152205460ff1690565b34801561079557600080fd5b506102946107a436600461358f565b611458565b3480156107b557600080fd5b506102946107c43660046135f3565b61149d565b60006001600160a01b03831661083a5760405162461bcd60e51b815260206004820152602b60248201527f455243313135353a2062616c616e636520717565727920666f7220746865207a60448201526a65726f206164647265737360a81b60648201526084015b60405180910390fd5b5060008181526065602090815260408083206001600160a01b03861684529091529020545b92915050565b600061085f826114e0565b6000805160206140de83398151915261088881611505565b6108918261150f565b5050565b60606108a08261151b565b6040516020016108b09190613626565b6040516020818303038152906040529050919050565b6108d284848484611623565b50505050565b60009081526097602052604090206001015490565b6001600160a01b0385163314806109095750610909853361075b565b6109705760405162461bcd60e51b815260206004820152603260248201527f455243313135353a207472616e736665722063616c6c6572206973206e6f74206044820152711bdddb995c881b9bdc88185c1c1c9bdd995960721b6064820152608401610831565b61097d858585858561176c565b5050505050565b61098d826108d8565b61099681611505565b6109a08383611907565b505050565b61015f5460ff16156109f15760405162461bcd60e51b81526020600482015260156024820152744e6f7420696e2077686974656c6973742073616c6560581b6044820152606401610831565b60008160ff1611610a445760405162461bcd60e51b815260206004820152601f60248201527f596f75206d757374206d696e74206174206c65617374206f6e65204e46542e006044820152606401610831565b60038160ff1661016154610a5891906136d0565b1115610a765760405162461bcd60e51b8152600401610831906136e3565b3360009081526101626020526040902054600190610a9890839060ff16613719565b60ff161115610ae55760405162461bcd60e51b81526020600482015260196024820152782cb7ba9036b0bc9036b4b73a103ab8103a3790189027232a1760391b6044820152606401610831565b8060ff1661016054610af79190613732565b3414610b155760405162461bcd60e51b815260040161083190613749565b6000610b203361198d565b9050610b2c8184610c9a565b5060008260ff166001600160401b03811115610b4a57610b4a612f00565b604051908082528060200260200182016040528015610b73578160200160208202803683370190505b50905060008360ff166001600160401b03811115610b9357610b93612f00565b604051908082528060200260200182016040528015610bbc578160200160208202803683370190505b50905060005b8460ff16811015610c2457610bd5611b12565b838281518110610be757610be761377d565b6020026020010181815250506001828281518110610c0757610c0761377d565b602090810291909101015280610c1c81613793565b915050610bc2565b50610c40338383604051806020016040528060008152506108c6565b8360ff166101616000828254610c5691906136d0565b909155505033600090815261016260205260408120805460ff1691610c7a836137ac565b91906101000a81548160ff021916908360ff160217905550505050505050565b600080610ca684611bb5565b90506000610cb48285611c33565b610165549091506001600160a01b0380831691161480610d0b5760405162461bcd60e51b815260206004820152601260248201527113595cdcd859d9481b9bdd081cda59db995960721b6044820152606401610831565b50600195945050505050565b6001600160a01b0381163314610d875760405162461bcd60e51b815260206004820152602f60248201527f416363657373436f6e74726f6c3a2063616e206f6e6c792072656e6f756e636560448201526e103937b632b9903337b91039b2b63360891b6064820152608401610831565b6108918282611c4f565b6000610d9c81611505565b5061015f805460ff19166002179055565b6000805160206140fe833981519152610dc581611505565b610dcd611cb6565b50565b6000610ddb81611505565b5061016055565b60608151835114610e475760405162461bcd60e51b815260206004820152602960248201527f455243313135353a206163636f756e747320616e6420696473206c656e677468604482015268040dad2e6dac2e8c6d60bb1b6064820152608401610831565b600083516001600160401b03811115610e6257610e62612f00565b604051908082528060200260200182016040528015610e8b578160200160208202803683370190505b50905060005b8451811015610f0357610ed6858281518110610eaf57610eaf61377d565b6020026020010151858381518110610ec957610ec961377d565b60200260200101516107c9565b828281518110610ee857610ee861377d565b6020908102919091010152610efc81613793565b9050610e91565b509392505050565b6001600160a01b038316331480610f275750610f27833361075b565b610f435760405162461bcd60e51b8152600401610831906137cb565b6109a0838383611d49565b6108d284848484611ed6565b6000610f666001611faf565b90508015610f7e576000805461ff0019166101001790555b610f9f6040518060800160405280605a815260200161411e605a9139612043565b610fa7612073565b610faf61209c565b610fb7612073565b610fbf612073565b61016580546001600160a01b03191633908117909155610fe190600090611907565b61016554611007906000805160206140de833981519152906001600160a01b0316611907565b6101655461102d906000805160206140fe833981519152906001600160a01b0316611907565b61015f805460ff1916600117905566038d7ea4c68000610160556000610161819055610166558015610dcd576000805461ff0019169055604051600181527f7f26b83ff96e1f2b6a682f133852f6798a09c465da95921460cefb38474024989060200160405180910390a150565b6000805160206140fe8339815191526110b381611505565b610dcd6120cb565b61015f5460ff166001146111065760405162461bcd60e51b81526020600482015260126024820152714e6f7420696e207075626c69632073616c6560701b6044820152606401610831565b60008160ff16116111595760405162461bcd60e51b815260206004820152601d60248201527f596f75206d757374206d696e74206174206c656173742031204e46542e0000006044820152606401610831565b60098160ff166101615461116d91906136d0565b111561118b5760405162461bcd60e51b8152600401610831906136e3565b33600090815261016360205260409020546003906111ad90839060ff16613719565b60ff1611156111fb5760405162461bcd60e51b815260206004820152601a6024820152792cb7ba9036b0bc9036b4b73a103ab8103a3790199027232a399760311b6044820152606401610831565b8060ff166101605461120d9190613732565b341461122b5760405162461bcd60e51b815260040161083190613749565b60008160ff166001600160401b0381111561124857611248612f00565b604051908082528060200260200182016040528015611271578160200160208202803683370190505b50905060008260ff166001600160401b0381111561129157611291612f00565b6040519080825280602002602001820160405280156112ba578160200160208202803683370190505b50905060005b8360ff16811015611322576112d3611b12565b8382815181106112e5576112e561377d565b60200260200101818152505060018282815181106113055761130561377d565b60209081029190910101528061131a81613793565b9150506112c0565b5061133e338383604051806020016040528060008152506108c6565b8260ff16610161600082825461135491906136d0565b909155505033600090815261016360205260408120805485929061137c90849060ff16613719565b92506101000a81548160ff021916908360ff160217905550505050565b60009182526097602090815260408084206001600160a01b0393909316845291905290205460ff1690565b610891338383612123565b60006113da81611505565b5061015f805460ff1916600117905566071afd498d000061016055565b600061140281611505565b5061015f805460ff1916905566038d7ea4c6800061016055565b611425826108d8565b61142e81611505565b6109a08383611c4f565b606060405180608001604052806060815260200161407e60609139905090565b6001600160a01b0385163314806114745750611474853361075b565b6114905760405162461bcd60e51b8152600401610831906137cb565b61097d8585858585612203565b6001600160a01b0383163314806114b957506114b9833361075b565b6114d55760405162461bcd60e51b8152600401610831906137cb565b6109a083838361232d565b60006001600160e01b03198216637965db0b60e01b148061085f575061085f82612437565b610dcd8133612487565b60676108918282613894565b6060816000036115425750506040805180820190915260018152600360fc1b602082015290565b8160005b811561156c578061155681613793565b91506115659050600a83613969565b9150611546565b6000816001600160401b0381111561158657611586612f00565b6040519080825280601f01601f1916602001820160405280156115b0576020820181803683370190505b5090505b841561161b576115c560018361397d565b91506115d2600a86613990565b6115dd9060306136d0565b60f81b8183815181106115f2576115f261377d565b60200101906001600160f81b031916908160001a905350611614600a86613969565b94506115b4565b949350505050565b6001600160a01b0384166116495760405162461bcd60e51b8152600401610831906139a4565b815183511461166a5760405162461bcd60e51b8152600401610831906139e5565b3361167a816000878787876124eb565b60005b8451811015611716578381815181106116985761169861377d565b6020026020010151606560008784815181106116b6576116b661377d565b602002602001015181526020019081526020016000206000886001600160a01b03166001600160a01b0316815260200190815260200160002060008282546116fe91906136d0565b9091555081905061170e81613793565b91505061167d565b50846001600160a01b031660006001600160a01b0316826001600160a01b031660008051602061403e8339815191528787604051611755929190613a2d565b60405180910390a461097d8160008787878761251c565b815183511461178d5760405162461bcd60e51b8152600401610831906139e5565b6001600160a01b0384166117b35760405162461bcd60e51b815260040161083190613a5b565b336117c28187878787876124eb565b60005b84518110156118ab5760008582815181106117e2576117e261377d565b6020026020010151905060008583815181106118005761180061377d565b60209081029190910181015160008481526065835260408082206001600160a01b038e1683529093529190912054909150818110156118515760405162461bcd60e51b815260040161083190613aa0565b60008381526065602090815260408083206001600160a01b038e8116855292528083208585039055908b168252812080548492906118909084906136d0565b92505081905550505050806118a490613793565b90506117c5565b50846001600160a01b0316866001600160a01b0316826001600160a01b031660008051602061403e83398151915287876040516118e9929190613a2d565b60405180910390a46118ff81878787878761251c565b505050505050565b6119118282611399565b6108915760008281526097602090815260408083206001600160a01b03851684529091529020805460ff191660011790556119493390565b6001600160a01b0316816001600160a01b0316837f2f8788117e7eff1d82e926ec794901d17c78024a50270940304540a733656f0d60405160405180910390a45050565b60408051602880825260608281019093526000919060208201818036833701905050905060005b6014811015611acd5760006119ca82601361397d565b6119d5906008613732565b6119e0906002613bce565b6119f3906001600160a01b038716613969565b60f81b9050600060108260f81c611a0a9190613bda565b60f81b905060008160f81c6010611a219190613bfc565b8360f81c611a2f9190613c1f565b60f81b9050611a3d8261267e565b85611a49866002613732565b81518110611a5957611a5961377d565b60200101906001600160f81b031916908160001a905350611a798161267e565b85611a85866002613732565b611a909060016136d0565b81518110611aa057611aa061377d565b60200101906001600160f81b031916908160001a9053505050508080611ac590613793565b9150506119b4565b5060405180604001604052806002815260200161060f60f31b81525081604051602001611afb929190613c38565b604051602081830303815290604052915050919050565b610166546000905b60098111611b6e576101668054906000611b3383613793565b9091555050610166546000908152610164602052604090205460ff16611b5c5750506101665490565b80611b6681613793565b915050611b1a565b5060405162461bcd60e51b815260206004820152601b60248201527a105b1b081d1bdad95b9cc81a185d99481899595b881b5a5b9d1959602a1b6044820152606401610831565b6000806040518060400160405280601a8152602001790ca2ba3432b932bab69029b4b3b732b21026b2b9b9b0b3b29d0560311b81525090506000611bf9845161151b565b90506000828286604051602001611c1293929190613c67565b60408051601f19818403018152919052805160209091012095945050505050565b6000806000611c4285856126b4565b91509150610f0381612722565b611c598282611399565b156108915760008281526097602090815260408083206001600160a01b0385168085529252808320805460ff1916905551339285917ff6391f5c32d9c69d2a47ea670b442974b53935d1edc7fd64eb21e047a839171b9190a45050565b60c95460ff16611cff5760405162461bcd60e51b815260206004820152601460248201527314185d5cd8589b194e881b9bdd081c185d5cd95960621b6044820152606401610831565b60c9805460ff191690557f5db9ee0a495bf2e6ff9c91a7834c1ba4fdd244a5e8aa4e537bd38aeae4b073aa335b6040516001600160a01b03909116815260200160405180910390a1565b6001600160a01b038316611d6f5760405162461bcd60e51b815260040161083190613caa565b8051825114611d905760405162461bcd60e51b8152600401610831906139e5565b6000339050611db3818560008686604051806020016040528060008152506124eb565b60005b8351811015611e7b576000848281518110611dd357611dd361377d565b602002602001015190506000848381518110611df157611df161377d565b60209081029190910181015160008481526065835260408082206001600160a01b038c168352909352919091205490915081811015611e425760405162461bcd60e51b815260040161083190613ced565b60009283526065602090815260408085206001600160a01b038b1686529091529092209103905580611e7381613793565b915050611db6565b5060006001600160a01b0316846001600160a01b0316826001600160a01b031660008051602061403e8339815191528686604051611eba929190613a2d565b60405180910390a46040805160208101909152600090526108d2565b6001600160a01b038416611efc5760405162461bcd60e51b8152600401610831906139a4565b336000611f08856128d3565b90506000611f15856128d3565b9050611f26836000898585896124eb565b60008681526065602090815260408083206001600160a01b038b16845290915281208054879290611f589084906136d0565b909155505060408051878152602081018790526001600160a01b03808a16926000929187169160008051602061405e833981519152910160405180910390a4611fa68360008989898961291e565b50505050505050565b60008054610100900460ff1615611ffd578160ff166001148015611fd95750611fd7306129e0565b155b611ff55760405162461bcd60e51b815260040161083190613d31565b506000919050565b60005460ff8084169116106120245760405162461bcd60e51b815260040161083190613d31565b506000805460ff191660ff92909216919091179055600190565b919050565b600054610100900460ff1661206a5760405162461bcd60e51b815260040161083190613d7f565b610dcd816129ef565b600054610100900460ff1661209a5760405162461bcd60e51b815260040161083190613d7f565b565b600054610100900460ff166120c35760405162461bcd60e51b815260040161083190613d7f565b61209a612a1f565b60c95460ff16156120ee5760405162461bcd60e51b815260040161083190613dca565b60c9805460ff191660011790557f62e78cea01bee320cd4e420270b5ea74000d11b0c9f74754ebdbfc544b05a258611d2c3390565b816001600160a01b0316836001600160a01b0316036121965760405162461bcd60e51b815260206004820152602960248201527f455243313135353a2073657474696e6720617070726f76616c20737461747573604482015268103337b91039b2b63360b91b6064820152608401610831565b6001600160a01b03838116600081815260666020908152604080832094871680845294825291829020805460ff191686151590811790915591519182527f17307eab39ab6107e8899845ad3d59bd9653f200f220920489ca2b5937696c31910160405180910390a3505050565b6001600160a01b0384166122295760405162461bcd60e51b815260040161083190613a5b565b336000612235856128d3565b90506000612242856128d3565b90506122528389898585896124eb565b60008681526065602090815260408083206001600160a01b038c168452909152902054858110156122955760405162461bcd60e51b815260040161083190613aa0565b60008781526065602090815260408083206001600160a01b038d8116855292528083208985039055908a168252812080548892906122d49084906136d0565b909155505060408051888152602081018890526001600160a01b03808b16928c8216929188169160008051602061405e833981519152910160405180910390a4612322848a8a8a8a8a61291e565b505050505050505050565b6001600160a01b0383166123535760405162461bcd60e51b815260040161083190613caa565b33600061235f846128d3565b9050600061236c846128d3565b905061238c838760008585604051806020016040528060008152506124eb565b60008581526065602090815260408083206001600160a01b038a168452909152902054848110156123cf5760405162461bcd60e51b815260040161083190613ced565b60008681526065602090815260408083206001600160a01b038b81168086529184528285208a8703905582518b81529384018a905290929088169160008051602061405e833981519152910160405180910390a4604080516020810190915260009052611fa6565b60006001600160e01b03198216636cdb3d1360e11b148061246857506001600160e01b031982166303a24d0760e21b145b8061085f57506301ffc9a760e01b6001600160e01b031983161461085f565b6124918282611399565b610891576124a9816001600160a01b03166014612a52565b6124b4836020612a52565b6040516020016124c5929190613df4565b60408051601f198184030181529082905262461bcd60e51b825261083191600401613052565b60c95460ff161561250e5760405162461bcd60e51b815260040161083190613dca565b6118ff868686868686612bf4565b61252e846001600160a01b03166129e0565b156118ff5760405163bc197c8160e01b81526001600160a01b0385169063bc197c81906125679089908990889088908890600401613e63565b6020604051808303816000875af19250505080156125a2575060408051601f3d908101601f1916820190925261259f91810190613ec1565b60015b61264e576125ae613ede565b806308c379a0036125e757506125c2613efa565b806125cd57506125e9565b8060405162461bcd60e51b81526004016108319190613052565b505b60405162461bcd60e51b815260206004820152603460248201527f455243313135353a207472616e7366657220746f206e6f6e20455243313135356044820152732932b1b2b4bb32b91034b6b83632b6b2b73a32b960611b6064820152608401610831565b6001600160e01b0319811663bc197c8160e01b14611fa65760405162461bcd60e51b815260040161083190613f83565b6000600a60f883901c10156126a55761269c60f883901c6030613719565b60f81b92915050565b61269c60f883901c6057613719565b60008082516041036126ea5760208301516040840151606085015160001a6126de87828585612d70565b9450945050505061271b565b82516040036127135760208301516040840151612708868383612e53565b93509350505061271b565b506000905060025b9250929050565b600081600481111561273657612736613fcb565b0361273e5750565b600181600481111561275257612752613fcb565b0361279a5760405162461bcd60e51b815260206004820152601860248201527745434453413a20696e76616c6964207369676e617475726560401b6044820152606401610831565b60028160048111156127ae576127ae613fcb565b036127fb5760405162461bcd60e51b815260206004820152601f60248201527f45434453413a20696e76616c6964207369676e6174757265206c656e677468006044820152606401610831565b600381600481111561280f5761280f613fcb565b036128675760405162461bcd60e51b815260206004820152602260248201527f45434453413a20696e76616c6964207369676e6174757265202773272076616c604482015261756560f01b6064820152608401610831565b600481600481111561287b5761287b613fcb565b03610dcd5760405162461bcd60e51b815260206004820152602260248201527f45434453413a20696e76616c6964207369676e6174757265202776272076616c604482015261756560f01b6064820152608401610831565b6040805160018082528183019092526060916000919060208083019080368337019050509050828160008151811061290d5761290d61377d565b602090810291909101015292915050565b612930846001600160a01b03166129e0565b156118ff5760405163f23a6e6160e01b81526001600160a01b0385169063f23a6e61906129699089908990889088908890600401613fe1565b6020604051808303816000875af19250505080156129a4575060408051601f3d908101601f191682019092526129a191810190613ec1565b60015b6129b0576125ae613ede565b6001600160e01b0319811663f23a6e6160e01b14611fa65760405162461bcd60e51b815260040161083190613f83565b6001600160a01b03163b151590565b600054610100900460ff16612a165760405162461bcd60e51b815260040161083190613d7f565b610dcd8161150f565b600054610100900460ff16612a465760405162461bcd60e51b815260040161083190613d7f565b60c9805460ff19169055565b60606000612a61836002613732565b612a6c9060026136d0565b6001600160401b03811115612a8357612a83612f00565b6040519080825280601f01601f191660200182016040528015612aad576020820181803683370190505b509050600360fc1b81600081518110612ac857612ac861377d565b60200101906001600160f81b031916908160001a905350600f60fb1b81600181518110612af757612af761377d565b60200101906001600160f81b031916908160001a9053506000612b1b846002613732565b612b269060016136d0565b90505b6001811115612b9e576f181899199a1a9b1b9c1cb0b131b232b360811b85600f1660108110612b5a57612b5a61377d565b1a60f81b828281518110612b7057612b7061377d565b60200101906001600160f81b031916908160001a90535060049490941c93612b9781614026565b9050612b29565b508315612bed5760405162461bcd60e51b815260206004820181905260248201527f537472696e67733a20686578206c656e67746820696e73756666696369656e746044820152606401610831565b9392505050565b6001600160a01b038516612c7c5760005b8351811015612c7a57828181518110612c2057612c2061377d565b602002602001015161012d6000868481518110612c3f57612c3f61377d565b602002602001015181526020019081526020016000206000828254612c6491906136d0565b90915550612c73905081613793565b9050612c05565b505b6001600160a01b0384166118ff5760005b8351811015611fa6576000848281518110612caa57612caa61377d565b602002602001015190506000848381518110612cc857612cc861377d565b60200260200101519050600061012d600084815260200190815260200160002054905081811015612d4c5760405162461bcd60e51b815260206004820152602860248201527f455243313135353a206275726e20616d6f756e74206578636565647320746f74604482015267616c537570706c7960c01b6064820152608401610831565b600092835261012d602052604090922091039055612d6981613793565b9050612c8d565b6000806fa2a8918ca85bafe22016d0b997e4df60600160ff1b03831115612d9d5750600090506003612e4a565b8460ff16601b14158015612db557508460ff16601c14155b15612dc65750600090506004612e4a565b6040805160008082526020820180845289905260ff881692820192909252606081018690526080810185905260019060a0016020604051602081039080840390855afa158015612e1a573d6000803e3d6000fd5b5050604051601f1901519150506001600160a01b038116612e4357600060019250925050612e4a565b9150600090505b94509492505050565b6000806001600160ff1b03831681612e7060ff86901c601b6136d0565b9050612e7e87828885612d70565b935093505050935093915050565b80356001600160a01b038116811461203e57600080fd5b60008060408385031215612eb657600080fd5b612ebf83612e8c565b946020939093013593505050565b6001600160e01b031981168114610dcd57600080fd5b600060208284031215612ef557600080fd5b8135612bed81612ecd565b634e487b7160e01b600052604160045260246000fd5b601f8201601f191681016001600160401b0381118282101715612f3b57612f3b612f00565b6040525050565b600082601f830112612f5357600080fd5b81356001600160401b03811115612f6c57612f6c612f00565b604051612f83601f8301601f191660200182612f16565b818152846020838601011115612f9857600080fd5b816020850160208301376000918101602001919091529392505050565b600060208284031215612fc757600080fd5b81356001600160401b03811115612fdd57600080fd5b61161b84828501612f42565b600060208284031215612ffb57600080fd5b5035919050565b60005b8381101561301d578181015183820152602001613005565b50506000910152565b6000815180845261303e816020860160208601613002565b601f01601f19169290920160200192915050565b602081526000612bed6020830184613026565b60006020828403121561307757600080fd5b612bed82612e8c565b60006001600160401b0382111561309957613099612f00565b5060051b60200190565b600082601f8301126130b457600080fd5b813560206130c182613080565b6040516130ce8282612f16565b83815260059390931b85018201928281019150868411156130ee57600080fd5b8286015b8481101561310957803583529183019183016130f2565b509695505050505050565b6000806000806080858703121561312a57600080fd5b61313385612e8c565b935060208501356001600160401b038082111561314f57600080fd5b61315b888389016130a3565b9450604087013591508082111561317157600080fd5b61317d888389016130a3565b9350606087013591508082111561319357600080fd5b506131a087828801612f42565b91505092959194509250565b600080600080600060a086880312156131c457600080fd5b6131cd86612e8c565b94506131db60208701612e8c565b935060408601356001600160401b03808211156131f757600080fd5b61320389838a016130a3565b9450606088013591508082111561321957600080fd5b61322589838a016130a3565b9350608088013591508082111561323b57600080fd5b5061324888828901612f42565b9150509295509295909350565b6000806040838503121561326857600080fd5b8235915061327860208401612e8c565b90509250929050565b803560ff8116811461203e57600080fd5b600080604083850312156132a557600080fd5b82356001600160401b038111156132bb57600080fd5b6132c785828601612f42565b92505061327860208401613281565b600080604083850312156132e957600080fd5b82356001600160401b038082111561330057600080fd5b61330c86838701612f42565b9350602085013591508082111561332257600080fd5b5061332f85828601612f42565b9150509250929050565b6000806040838503121561334c57600080fd5b82356001600160401b038082111561336357600080fd5b818501915085601f83011261337757600080fd5b8135602061338482613080565b6040516133918282612f16565b83815260059390931b85018201928281019150898411156133b157600080fd5b948201945b838610156133d6576133c786612e8c565b825294820194908201906133b6565b965050860135925050808211156133ec57600080fd5b5061332f858286016130a3565b600081518084526020808501945080840160005b838110156134295781518752958201959082019060010161340d565b509495945050505050565b602081526000612bed60208301846133f9565b60008060006060848603121561345c57600080fd5b61346584612e8c565b925060208401356001600160401b038082111561348157600080fd5b61348d878388016130a3565b935060408601359150808211156134a357600080fd5b506134b0868287016130a3565b9150509250925092565b600080600080608085870312156134d057600080fd5b6134d985612e8c565b9350602085013592506040850135915060608501356001600160401b0381111561350257600080fd5b6131a087828801612f42565b60006020828403121561352057600080fd5b612bed82613281565b6000806040838503121561353c57600080fd5b61354583612e8c565b91506020830135801515811461355a57600080fd5b809150509250929050565b6000806040838503121561357857600080fd5b61358183612e8c565b915061327860208401612e8c565b600080600080600060a086880312156135a757600080fd5b6135b086612e8c565b94506135be60208701612e8c565b9350604086013592506060860135915060808601356001600160401b038111156135e757600080fd5b61324888828901612f42565b60008060006060848603121561360857600080fd5b61361184612e8c565b95602085013595506040909401359392505050565b7f68747470733a2f2f697066732e696f2f697066732f6261667962656963786c7281527f72716d356c367571746e67666d6467727a7a71726b6c7532766471776733647860208201527033326663717066666837717972796a752f60781b60408201526000825161369e816051850160208701613002565b64173539b7b760d91b6051939091019283015250605601919050565b634e487b7160e01b600052601160045260246000fd5b8082018082111561085f5761085f6136ba565b6020808252601c908201527b283ab931b430b9b29032bc31b2b2b2399036b0bc1039bab838363c9760211b604082015260600190565b60ff818116838216019081111561085f5761085f6136ba565b808202811582820484141761085f5761085f6136ba565b6020808252601a90820152792cb7ba9036bab9ba103830bc903337b9103cb7bab91027232a1760311b604082015260600190565b634e487b7160e01b600052603260045260246000fd5b6000600182016137a5576137a56136ba565b5060010190565b600060ff821660ff81036137c2576137c26136ba565b60010192915050565b60208082526029908201527f455243313135353a2063616c6c6572206973206e6f74206f776e6572206e6f7260408201526808185c1c1c9bdd995960ba1b606082015260800190565b600181811c9082168061382857607f821691505b60208210810361384857634e487b7160e01b600052602260045260246000fd5b50919050565b601f8211156109a057600081815260208120601f850160051c810160208610156138755750805b601f850160051c820191505b818110156118ff57828155600101613881565b81516001600160401b038111156138ad576138ad612f00565b6138c1816138bb8454613814565b8461384e565b602080601f8311600181146138f657600084156138de5750858301515b600019600386901b1c1916600185901b1785556118ff565b600085815260208120601f198616915b8281101561392557888601518255948401946001909101908401613906565b50858210156139435787850151600019600388901b60f8161c191681555b5050505050600190811b01905550565b634e487b7160e01b600052601260045260246000fd5b60008261397857613978613953565b500490565b8181038181111561085f5761085f6136ba565b60008261399f5761399f613953565b500690565b60208082526021908201527f455243313135353a206d696e7420746f20746865207a65726f206164647265736040820152607360f81b606082015260800190565b60208082526028908201527f455243313135353a2069647320616e6420616d6f756e7473206c656e677468206040820152670dad2e6dac2e8c6d60c31b606082015260800190565b604081526000613a4060408301856133f9565b8281036020840152613a5281856133f9565b95945050505050565b60208082526025908201527f455243313135353a207472616e7366657220746f20746865207a65726f206164604082015264647265737360d81b606082015260800190565b6020808252602a908201527f455243313135353a20696e73756666696369656e742062616c616e636520666f60408201526939103a3930b739b332b960b11b606082015260800190565b600181815b80851115613b25578160001904821115613b0b57613b0b6136ba565b80851615613b1857918102915b93841c9390800290613aef565b509250929050565b600082613b3c5750600161085f565b81613b495750600061085f565b8160018114613b5f5760028114613b6957613b85565b600191505061085f565b60ff841115613b7a57613b7a6136ba565b50506001821b61085f565b5060208310610133831016604e8410600b8410161715613ba8575081810a61085f565b613bb28383613aea565b8060001904821115613bc657613bc66136ba565b029392505050565b6000612bed8383613b2d565b600060ff831680613bed57613bed613953565b8060ff84160491505092915050565b60ff8181168382160290811690818114613c1857613c186136ba565b5092915050565b60ff828116828216039081111561085f5761085f6136ba565b60008351613c4a818460208801613002565b835190830190613c5e818360208801613002565b01949350505050565b60008451613c79818460208901613002565b845190830190613c8d818360208901613002565b8451910190613ca0818360208801613002565b0195945050505050565b60208082526023908201527f455243313135353a206275726e2066726f6d20746865207a65726f206164647260408201526265737360e81b606082015260800190565b60208082526024908201527f455243313135353a206275726e20616d6f756e7420657863656564732062616c604082015263616e636560e01b606082015260800190565b6020808252602e908201527f496e697469616c697a61626c653a20636f6e747261637420697320616c72656160408201526d191e481a5b9a5d1a585b1a5e995960921b606082015260800190565b6020808252602b908201527f496e697469616c697a61626c653a20636f6e7472616374206973206e6f74206960408201526a6e697469616c697a696e6760a81b606082015260800190565b60208082526010908201526f14185d5cd8589b194e881c185d5cd95960821b604082015260600190565b76020b1b1b2b9b9a1b7b73a3937b61d1030b1b1b7bab73a1604d1b815260008351613e26816017850160208801613002565b7001034b99036b4b9b9b4b733903937b6329607d1b6017918401918201528351613e57816028840160208801613002565b01602801949350505050565b6001600160a01b0386811682528516602082015260a060408201819052600090613e8f908301866133f9565b8281036060840152613ea181866133f9565b90508281036080840152613eb58185613026565b98975050505050505050565b600060208284031215613ed357600080fd5b8151612bed81612ecd565b600060033d1115613ef75760046000803e5060005160e01c5b90565b600060443d1015613f085790565b6040516003193d81016004833e81513d6001600160401b038083116024840183101715613f3757505050505090565b8285019150815181811115613f4f5750505050505090565b843d8701016020828501011115613f695750505050505090565b613f7860208286010187612f16565b509095945050505050565b60208082526028908201527f455243313135353a204552433131353552656365697665722072656a656374656040820152676420746f6b656e7360c01b606082015260800190565b634e487b7160e01b600052602160045260246000fd5b6001600160a01b03868116825285166020820152604081018490526060810183905260a06080820181905260009061401b90830184613026565b979650505050505050565b600081614035576140356136ba565b50600019019056fe4a39dc06d4c0dbc64b70af90fd698a233a518aa5d07e595d983b8c0526c8f7fbc3d58168c5ae7397731d063d5bbf3d657854427343f4c083240f7aacaa2d0f6268747470733a2f2f697066732e696f2f697066732f626166796265696469753337726d676b62787332707637677965777678376d6279626d3776633361347a7663636f6c7337353663693479746434752f636f6c6c656374696f6e2e6a736f6e7804d923f43a17d325d77e781528e0793b2edd9890ab45fc64efd7b4b427744c65d7a28e3265b37a6474929f336521b332c1681b933f6cb9f3376673440d862a68747470733a2f2f697066732e696f2f697066732f6261667962656963786c7272716d356c367571746e67666d6467727a7a71726b6c7532766471776733647833326663717066666837717972796a752f7b69647d2e6a736f6ea2646970667358221220034894ce5e8ddbc213cf6c8f3092e2f5de4cb9ecd7121d6a4ef1c0526cbe872a64736f6c63430008130033",
  "linkReferences": {},
  "deployedLinkReferences": {}
}