{
  "_format": "hh-sol-artifact-1",
  "contractName": "RPS",
  "sourceName": "contracts/RPS.sol",
  "abi": [
    {
      "inputs": [],
      "stateMutability": "nonpayable",
      "type": "constructor"
    },
    {
      "anonymous": false,
      "inputs": [
        {
          "indexed": true,
          "internalType": "address",
          "name": "account",
          "type": "address"
        },
        {
          "indexed": true,
          "internalType": "address",
          "name": "operator",
          "type": "address"
        },
        {
          "indexed": false,
          "internalType": "bool",
          "name": "approved",
          "type": "bool"
        }
      ],
      "name": "ApprovalForAll",
      "type": "event"
    },
    {
      "anonymous": false,
      "inputs": [
        {
          "indexed": false,
          "internalType": "uint8",
          "name": "version",
          "type": "uint8"
        }
      ],
      "name": "Initialized",
      "type": "event"
    },
    {
      "anonymous": false,
      "inputs": [
        {
          "indexed": false,
          "internalType": "address",
          "name": "account",
          "type": "address"
        }
      ],
      "name": "Paused",
      "type": "event"
    },
    {
      "anonymous": false,
      "inputs": [
        {
          "indexed": true,
          "internalType": "bytes32",
          "name": "role",
          "type": "bytes32"
        },
        {
          "indexed": true,
          "internalType": "bytes32",
          "name": "previousAdminRole",
          "type": "bytes32"
        },
        {
          "indexed": true,
          "internalType": "bytes32",
          "name": "newAdminRole",
          "type": "bytes32"
        }
      ],
      "name": "RoleAdminChanged",
      "type": "event"
    },
    {
      "anonymous": false,
      "inputs": [
        {
          "indexed": true,
          "internalType": "bytes32",
          "name": "role",
          "type": "bytes32"
        },
        {
          "indexed": true,
          "internalType": "address",
          "name": "account",
          "type": "address"
        },
        {
          "indexed": true,
          "internalType": "address",
          "name": "sender",
          "type": "address"
        }
      ],
      "name": "RoleGranted",
      "type": "event"
    },
    {
      "anonymous": false,
      "inputs": [
        {
          "indexed": true,
          "internalType": "bytes32",
          "name": "role",
          "type": "bytes32"
        },
        {
          "indexed": true,
          "internalType": "address",
          "name": "account",
          "type": "address"
        },
        {
          "indexed": true,
          "internalType": "address",
          "name": "sender",
          "type": "address"
        }
      ],
      "name": "RoleRevoked",
      "type": "event"
    },
    {
      "anonymous": false,
      "inputs": [
        {
          "indexed": true,
          "internalType": "address",
          "name": "operator",
          "type": "address"
        },
        {
          "indexed": true,
          "internalType": "address",
          "name": "from",
          "type": "address"
        },
        {
          "indexed": true,
          "internalType": "address",
          "name": "to",
          "type": "address"
        },
        {
          "indexed": false,
          "internalType": "uint256[]",
          "name": "ids",
          "type": "uint256[]"
        },
        {
          "indexed": false,
          "internalType": "uint256[]",
          "name": "values",
          "type": "uint256[]"
        }
      ],
      "name": "TransferBatch",
      "type": "event"
    },
    {
      "anonymous": false,
      "inputs": [
        {
          "indexed": true,
          "internalType": "address",
          "name": "operator",
          "type": "address"
        },
        {
          "indexed": true,
          "internalType": "address",
          "name": "from",
          "type": "address"
        },
        {
          "indexed": true,
          "internalType": "address",
          "name": "to",
          "type": "address"
        },
        {
          "indexed": false,
          "internalType": "uint256",
          "name": "id",
          "type": "uint256"
        },
        {
          "indexed": false,
          "internalType": "uint256",
          "name": "value",
          "type": "uint256"
        }
      ],
      "name": "TransferSingle",
      "type": "event"
    },
    {
      "anonymous": false,
      "inputs": [
        {
          "indexed": false,
          "internalType": "string",
          "name": "value",
          "type": "string"
        },
        {
          "indexed": true,
          "internalType": "uint256",
          "name": "id",
          "type": "uint256"
        }
      ],
      "name": "URI",
      "type": "event"
    },
    {
      "anonymous": false,
      "inputs": [
        {
          "indexed": false,
          "internalType": "address",
          "name": "account",
          "type": "address"
        }
      ],
      "name": "Unpaused",
      "type": "event"
    },
    {
      "inputs": [],
      "name": "DEFAULT_ADMIN_ROLE",
      "outputs": [
        {
          "internalType": "bytes32",
          "name": "",
          "type": "bytes32"
        }
      ],
      "stateMutability": "view",
      "type": "function"
    },
    {
      "inputs": [],
      "name": "PAUSER_ROLE",
      "outputs": [
        {
          "internalType": "bytes32",
          "name": "",
          "type": "bytes32"
        }
      ],
      "stateMutability": "view",
      "type": "function"
    },
    {
      "inputs": [],
      "name": "URI_SETTER_ROLE",
      "outputs": [
        {
          "internalType": "bytes32",
          "name": "",
          "type": "bytes32"
        }
      ],
      "stateMutability": "view",
      "type": "function"
    },
    {
      "inputs": [
        {
          "internalType": "string",
          "name": "message",
          "type": "string"
        },
        {
          "internalType": "bytes",
          "name": "signature",
          "type": "bytes"
        }
      ],
      "name": "_verifyBackendSignature",
      "outputs": [
        {
          "internalType": "bool",
          "name": "",
          "type": "bool"
        }
      ],
      "stateMutability": "view",
      "type": "function"
    },
    {
      "inputs": [
        {
          "internalType": "address",
          "name": "account",
          "type": "address"
        },
        {
          "internalType": "uint256",
          "name": "id",
          "type": "uint256"
        }
      ],
      "name": "balanceOf",
      "outputs": [
        {
          "internalType": "uint256",
          "name": "",
          "type": "uint256"
        }
      ],
      "stateMutability": "view",
      "type": "function"
    },
    {
      "inputs": [
        {
          "internalType": "address[]",
          "name": "accounts",
          "type": "address[]"
        },
        {
          "internalType": "uint256[]",
          "name": "ids",
          "type": "uint256[]"
        }
      ],
      "name": "balanceOfBatch",
      "outputs": [
        {
          "internalType": "uint256[]",
          "name": "",
          "type": "uint256[]"
        }
      ],
      "stateMutability": "view",
      "type": "function"
    },
    {
      "inputs": [
        {
          "internalType": "address",
          "name": "account",
          "type": "address"
        },
        {
          "internalType": "uint256",
          "name": "id",
          "type": "uint256"
        },
        {
          "internalType": "uint256",
          "name": "value",
          "type": "uint256"
        }
      ],
      "name": "burn",
      "outputs": [],
      "stateMutability": "nonpayable",
      "type": "function"
    },
    {
      "inputs": [
        {
          "internalType": "address",
          "name": "account",
          "type": "address"
        },
        {
          "internalType": "uint256[]",
          "name": "ids",
          "type": "uint256[]"
        },
        {
          "internalType": "uint256[]",
          "name": "values",
          "type": "uint256[]"
        }
      ],
      "name": "burnBatch",
      "outputs": [],
      "stateMutability": "nonpayable",
      "type": "function"
    },
    {
      "inputs": [],
      "name": "contractURI",
      "outputs": [
        {
          "internalType": "string",
          "name": "",
          "type": "string"
        }
      ],
      "stateMutability": "pure",
      "type": "function"
    },
    {
      "inputs": [],
      "name": "cost",
      "outputs": [
        {
          "internalType": "uint256",
          "name": "",
          "type": "uint256"
        }
      ],
      "stateMutability": "view",
      "type": "function"
    },
    {
      "inputs": [],
      "name": "enablePublicSaleState",
      "outputs": [],
      "stateMutability": "nonpayable",
      "type": "function"
    },
    {
      "inputs": [],
      "name": "enableWhitelistState",
      "outputs": [],
      "stateMutability": "nonpayable",
      "type": "function"
    },
    {
      "inputs": [],
      "name": "endSale",
      "outputs": [],
      "stateMutability": "nonpayable",
      "type": "function"
    },
    {
      "inputs": [
        {
          "internalType": "uint256",
          "name": "id",
          "type": "uint256"
        }
      ],
      "name": "exists",
      "outputs": [
        {
          "internalType": "bool",
          "name": "",
          "type": "bool"
        }
      ],
      "stateMutability": "view",
      "type": "function"
    },
    {
      "inputs": [
        {
          "internalType": "bytes32",
          "name": "role",
          "type": "bytes32"
        }
      ],
      "name": "getRoleAdmin",
      "outputs": [
        {
          "internalType": "bytes32",
          "name": "",
          "type": "bytes32"
        }
      ],
      "stateMutability": "view",
      "type": "function"
    },
    {
      "inputs": [
        {
          "internalType": "bytes32",
          "name": "role",
          "type": "bytes32"
        },
        {
          "internalType": "address",
          "name": "account",
          "type": "address"
        }
      ],
      "name": "grantRole",
      "outputs": [],
      "stateMutability": "nonpayable",
      "type": "function"
    },
    {
      "inputs": [
        {
          "internalType": "bytes32",
          "name": "role",
          "type": "bytes32"
        },
        {
          "internalType": "address",
          "name": "account",
          "type": "address"
        }
      ],
      "name": "hasRole",
      "outputs": [
        {
          "internalType": "bool",
          "name": "",
          "type": "bool"
        }
      ],
      "stateMutability": "view",
      "type": "function"
    },
    {
      "inputs": [],
      "name": "initialize",
      "outputs": [],
      "stateMutability": "nonpayable",
      "type": "function"
    },
    {
      "inputs": [
        {
          "internalType": "address",
          "name": "account",
          "type": "address"
        },
        {
          "internalType": "address",
          "name": "operator",
          "type": "address"
        }
      ],
      "name": "isApprovedForAll",
      "outputs": [
        {
          "internalType": "bool",
          "name": "",
          "type": "bool"
        }
      ],
      "stateMutability": "view",
      "type": "function"
    },
    {
      "inputs": [],
      "name": "maxPublicSaleMintAmount",
      "outputs": [
        {
          "internalType": "uint256",
          "name": "",
          "type": "uint256"
        }
      ],
      "stateMutability": "view",
      "type": "function"
    },
    {
      "inputs": [],
      "name": "maxWhitelistMintAmount",
      "outputs": [
        {
          "internalType": "uint256",
          "name": "",
          "type": "uint256"
        }
      ],
      "stateMutability": "view",
      "type": "function"
    },
    {
      "inputs": [
        {
          "internalType": "address",
          "name": "account",
          "type": "address"
        },
        {
          "internalType": "uint256",
          "name": "id",
          "type": "uint256"
        },
        {
          "internalType": "uint256",
          "name": "amount",
          "type": "uint256"
        },
        {
          "internalType": "bytes",
          "name": "data",
          "type": "bytes"
        }
      ],
      "name": "mint",
      "outputs": [],
      "stateMutability": "nonpayable",
      "type": "function"
    },
    {
      "inputs": [
        {
          "internalType": "address",
          "name": "to",
          "type": "address"
        },
        {
          "internalType": "uint256[]",
          "name": "ids",
          "type": "uint256[]"
        },
        {
          "internalType": "uint256[]",
          "name": "amounts",
          "type": "uint256[]"
        },
        {
          "internalType": "bytes",
          "name": "data",
          "type": "bytes"
        }
      ],
      "name": "mintBatch",
      "outputs": [],
      "stateMutability": "nonpayable",
      "type": "function"
    },
    {
      "inputs": [],
      "name": "pause",
      "outputs": [],
      "stateMutability": "nonpayable",
      "type": "function"
    },
    {
      "inputs": [],
      "name": "paused",
      "outputs": [
        {
          "internalType": "bool",
          "name": "",
          "type": "bool"
        }
      ],
      "stateMutability": "view",
      "type": "function"
    },
    {
      "inputs": [
        {
          "internalType": "uint8",
          "name": "numberOfTokens",
          "type": "uint8"
        }
      ],
      "name": "publicMint",
      "outputs": [],
      "stateMutability": "payable",
      "type": "function"
    },
    {
      "inputs": [],
      "name": "publicMintedByAddress",
      "outputs": [
        {
          "internalType": "uint8",
          "name": "",
          "type": "uint8"
        }
      ],
      "stateMutability": "view",
      "type": "function"
    },
    {
      "inputs": [
        {
          "internalType": "bytes32",
          "name": "role",
          "type": "bytes32"
        },
        {
          "internalType": "address",
          "name": "account",
          "type": "address"
        }
      ],
      "name": "renounceRole",
      "outputs": [],
      "stateMutability": "nonpayable",
      "type": "function"
    },
    {
      "inputs": [
        {
          "internalType": "bytes32",
          "name": "role",
          "type": "bytes32"
        },
        {
          "internalType": "address",
          "name": "account",
          "type": "address"
        }
      ],
      "name": "revokeRole",
      "outputs": [],
      "stateMutability": "nonpayable",
      "type": "function"
    },
    {
      "inputs": [
        {
          "internalType": "address",
          "name": "from",
          "type": "address"
        },
        {
          "internalType": "address",
          "name": "to",
          "type": "address"
        },
        {
          "internalType": "uint256[]",
          "name": "ids",
          "type": "uint256[]"
        },
        {
          "internalType": "uint256[]",
          "name": "amounts",
          "type": "uint256[]"
        },
        {
          "internalType": "bytes",
          "name": "data",
          "type": "bytes"
        }
      ],
      "name": "safeBatchTransferFrom",
      "outputs": [],
      "stateMutability": "nonpayable",
      "type": "function"
    },
    {
      "inputs": [
        {
          "internalType": "address",
          "name": "from",
          "type": "address"
        },
        {
          "internalType": "address",
          "name": "to",
          "type": "address"
        },
        {
          "internalType": "uint256",
          "name": "id",
          "type": "uint256"
        },
        {
          "internalType": "uint256",
          "name": "amount",
          "type": "uint256"
        },
        {
          "internalType": "bytes",
          "name": "data",
          "type": "bytes"
        }
      ],
      "name": "safeTransferFrom",
      "outputs": [],
      "stateMutability": "nonpayable",
      "type": "function"
    },
    {
      "inputs": [],
      "name": "saleState",
      "outputs": [
        {
          "internalType": "uint8",
          "name": "",
          "type": "uint8"
        }
      ],
      "stateMutability": "view",
      "type": "function"
    },
    {
      "inputs": [
        {
          "internalType": "address",
          "name": "operator",
          "type": "address"
        },
        {
          "internalType": "bool",
          "name": "approved",
          "type": "bool"
        }
      ],
      "name": "setApprovalForAll",
      "outputs": [],
      "stateMutability": "nonpayable",
      "type": "function"
    },
    {
      "inputs": [
        {
          "internalType": "uint256",
          "name": "_newCost",
          "type": "uint256"
        }
      ],
      "name": "setCost",
      "outputs": [],
      "stateMutability": "nonpayable",
      "type": "function"
    },
    {
      "inputs": [
        {
          "internalType": "string",
          "name": "newuri",
          "type": "string"
        }
      ],
      "name": "setURI",
      "outputs": [],
      "stateMutability": "nonpayable",
      "type": "function"
    },
    {
      "inputs": [],
      "name": "supply",
      "outputs": [
        {
          "internalType": "uint256",
          "name": "",
          "type": "uint256"
        }
      ],
      "stateMutability": "view",
      "type": "function"
    },
    {
      "inputs": [],
      "name": "supplyLimit",
      "outputs": [
        {
          "internalType": "uint256",
          "name": "",
          "type": "uint256"
        }
      ],
      "stateMutability": "view",
      "type": "function"
    },
    {
      "inputs": [
        {
          "internalType": "bytes4",
          "name": "interfaceId",
          "type": "bytes4"
        }
      ],
      "name": "supportsInterface",
      "outputs": [
        {
          "internalType": "bool",
          "name": "",
          "type": "bool"
        }
      ],
      "stateMutability": "view",
      "type": "function"
    },
    {
      "inputs": [
        {
          "internalType": "uint256",
          "name": "id",
          "type": "uint256"
        }
      ],
      "name": "totalSupply",
      "outputs": [
        {
          "internalType": "uint256",
          "name": "",
          "type": "uint256"
        }
      ],
      "stateMutability": "view",
      "type": "function"
    },
    {
      "inputs": [],
      "name": "unpause",
      "outputs": [],
      "stateMutability": "nonpayable",
      "type": "function"
    },
    {
      "inputs": [
        {
          "internalType": "uint256",
          "name": "_tokenid",
          "type": "uint256"
        }
      ],
      "name": "uri",
      "outputs": [
        {
          "internalType": "string",
          "name": "",
          "type": "string"
        }
      ],
      "stateMutability": "pure",
      "type": "function"
    },
    {
      "inputs": [
        {
          "internalType": "bytes",
          "name": "signature",
          "type": "bytes"
        },
        {
          "internalType": "uint8",
          "name": "numberOfTokens",
          "type": "uint8"
        }
      ],
      "name": "whitelistMint",
      "outputs": [],
      "stateMutability": "payable",
      "type": "function"
    },
    {
      "inputs": [],
      "name": "whitelistMintedByAddress",
      "outputs": [
        {
          "internalType": "uint8",
          "name": "",
          "type": "uint8"
        }
      ],
      "stateMutability": "view",
      "type": "function"
    },
    {
      "inputs": [],
      "name": "whitelistSupplyLimit",
      "outputs": [
        {
          "internalType": "uint256",
          "name": "",
          "type": "uint256"
        }
      ],
      "stateMutability": "view",
      "type": "function"
    }
  ],
  "bytecode": "0x60806040523480156200001157600080fd5b50600062000020600162000087565b9050801562000039576000805461ff0019166101001790555b801562000080576000805461ff0019169055604051600181527f7f26b83ff96e1f2b6a682f133852f6798a09c465da95921460cefb38474024989060200160405180910390a15b5062000191565b60008054610100900460ff1615620000f0578160ff166001148015620000c05750620000be306200013460201b6200149e1760201c565b155b620000e85760405162461bcd60e51b8152600401620000df9062000143565b60405180910390fd5b506000919050565b60005460ff8084169116106200011a5760405162461bcd60e51b8152600401620000df9062000143565b506000805460ff191660ff92909216919091179055600190565b6001600160a01b03163b151590565b6020808252602e908201527f496e697469616c697a61626c653a20636f6e747261637420697320616c72656160408201526d191e481a5b9a5d1a585b1a5e995960921b606082015260800190565b61412d80620001a16000396000f3fe6080604052600436106101f65760003560e01c8062fdd58e146101fb57806301ffc9a71461022e57806302fe53051461025e578063047fc9aa146102805780630e89341c1461029757806313faede6146102c457806319d1997a146102db5780631f7fdffa146102f0578063248a9ca3146103105780632eb2c2d6146103305780632f2ff15d146103505780632fad121a14610370578063328ae7a11461038357806336568abe146103a3578063380d831b146103c35780633f4ba83a146103d857806344a0d68a146103ed5780634e1273f41461040d5780634f558e791461043a5780635c975abb1461046a578063603f4d52146104825780636b20c454146104af578063731133e9146104cf5780637f345710146104ef5780638129fc1c146105115780638456cb5914610526578063858e83b51461053b5780638e1ed66d1461054e57806391d14854146105745780639b98969414610594578063a217fddf146105ba578063a22cb465146105cf578063b0f7e081146105ef578063bd85b03914610604578063caba7ffa14610632578063d3aed92a14610647578063d547741f1461065c578063e63ab1e91461067c578063e8a3d4851461069e578063e985e9c5146106b3578063f242432a146106fc578063f3eda8c4146105ef578063f5298aca1461071c578063f96407fa1461073c575b600080fd5b34801561020757600080fd5b5061021b610216366004612f07565b610751565b6040519081526020015b60405180910390f35b34801561023a57600080fd5b5061024e610249366004612f47565b6107ed565b6040519015158152602001610225565b34801561026a57600080fd5b5061027e610279366004613019565b6107f8565b005b34801561028c57600080fd5b5061021b6101615481565b3480156102a357600080fd5b506102b76102b236600461304d565b61081d565b60405161022591906130be565b3480156102d057600080fd5b5061021b6101605481565b3480156102e757600080fd5b5061021b600981565b3480156102fc57600080fd5b5061027e61030b366004613165565b61084e565b34801561031c57600080fd5b5061021b61032b36600461304d565b610860565b34801561033c57600080fd5b5061027e61034b3660046131fd565b610875565b34801561035c57600080fd5b5061027e61036b3660046132a6565b61090c565b61027e61037e3660046132e3565b61092d565b34801561038f57600080fd5b5061024e61039e366004613327565b610c22565b3480156103af57600080fd5b5061027e6103be3660046132a6565b610c9f565b3480156103cf57600080fd5b5061027e610d19565b3480156103e457600080fd5b5061027e610d35565b3480156103f957600080fd5b5061027e61040836600461304d565b610d58565b34801561041957600080fd5b5061042d61042836600461338a565b610d6a565b6040516102259190613485565b34801561044657600080fd5b5061024e61045536600461304d565b600090815261012d6020526040902054151590565b34801561047657600080fd5b5060c95460ff1661024e565b34801561048e57600080fd5b5061015f5461049d9060ff1681565b60405160ff9091168152602001610225565b3480156104bb57600080fd5b5061027e6104ca366004613498565b610e93565b3480156104db57600080fd5b5061027e6104ea36600461350b565b610ed6565b3480156104fb57600080fd5b5061021b60008051602061405e83398151915281565b34801561051d57600080fd5b5061027e610ee2565b34801561053257600080fd5b5061027e611023565b61027e61054936600461355f565b611043565b34801561055a57600080fd5b50336000908152610162602052604090205460ff1661049d565b34801561058057600080fd5b5061024e61058f3660046132a6565b611357565b3480156105a057600080fd5b50336000908152610163602052604090205460ff1661049d565b3480156105c657600080fd5b5061021b600081565b3480156105db57600080fd5b5061027e6105ea36600461357a565b611382565b3480156105fb57600080fd5b5061021b600381565b34801561061057600080fd5b5061021b61061f36600461304d565b600090815261012d602052604090205490565b34801561063e57600080fd5b5061027e61138d565b34801561065357600080fd5b5061027e6113b5565b34801561066857600080fd5b5061027e6106773660046132a6565b6113da565b34801561068857600080fd5b5061021b60008051602061407e83398151915281565b3480156106aa57600080fd5b506102b76113f6565b3480156106bf57600080fd5b5061024e6106ce3660046135b6565b6001600160a01b03918216600090815260666020908152604080832093909416825291909152205460ff1690565b34801561070857600080fd5b5061027e6107173660046135e0565b611416565b34801561072857600080fd5b5061027e610737366004613644565b61145b565b34801561074857600080fd5b5061021b600181565b60006001600160a01b0383166107c25760405162461bcd60e51b815260206004820152602b60248201527f455243313135353a2062616c616e636520717565727920666f7220746865207a60448201526a65726f206164647265737360a81b60648201526084015b60405180910390fd5b5060008181526065602090815260408083206001600160a01b03861684529091529020545b92915050565b60006107e7826114ad565b60008051602061405e833981519152610810816114d2565b610819826114dc565b5050565b6060610828826114ef565b6040516020016108389190613677565b6040516020818303038152906040529050919050565b61085a848484846115f4565b50505050565b60009081526097602052604090206001015490565b6001600160a01b038516331480610891575061089185336106ce565b6108f85760405162461bcd60e51b815260206004820152603260248201527f455243313135353a207472616e736665722063616c6c6572206973206e6f74206044820152711bdddb995c881b9bdc88185c1c1c9bdd995960721b60648201526084016107b9565b610905858585858561173d565b5050505050565b61091582610860565b61091e816114d2565b61092883836118d8565b505050565b61015f5460ff16156109795760405162461bcd60e51b81526020600482015260156024820152744e6f7420696e2077686974656c6973742073616c6560581b60448201526064016107b9565b60008160ff16116109cc5760405162461bcd60e51b815260206004820152601f60248201527f596f75206d757374206d696e74206174206c65617374206f6e65204e46542e0060448201526064016107b9565b60038160ff16610161546109e09190613721565b11156109fe5760405162461bcd60e51b81526004016107b990613739565b3360009081526101626020526040902054600190610a2090839060ff1661377a565b60ff161115610a6d5760405162461bcd60e51b81526020600482015260196024820152782cb7ba9036b0bc9036b4b73a103ab8103a3790189027232a1760391b60448201526064016107b9565b8060ff1661016054610a7f919061379f565b3414610a9d5760405162461bcd60e51b81526004016107b9906137be565b6000610aa83361195e565b9050610ab48184610c22565b5060008260ff166001600160401b03811115610ad257610ad2612f64565b604051908082528060200260200182016040528015610afb578160200160208202803683370190505b50905060008360ff166001600160401b03811115610b1b57610b1b612f64565b604051908082528060200260200182016040528015610b44578160200160208202803683370190505b50905060005b8460ff16811015610bac57610b5d611ae3565b838281518110610b6f57610b6f6137f2565b6020026020010181815250506001828281518110610b8f57610b8f6137f2565b602090810291909101015280610ba481613808565b915050610b4a565b50610bc83383836040518060200160405280600081525061084e565b8360ff166101616000828254610bde9190613721565b909155505033600090815261016260205260408120805460ff1691610c0283613823565b91906101000a81548160ff021916908360ff160217905550505050505050565b600080610c2e84611b86565b90506000610c3c8285611c04565b610165549091506001600160a01b0380831691161480610c935760405162461bcd60e51b815260206004820152601260248201527113595cdcd859d9481b9bdd081cda59db995960721b60448201526064016107b9565b50600195945050505050565b6001600160a01b0381163314610d0f5760405162461bcd60e51b815260206004820152602f60248201527f416363657373436f6e74726f6c3a2063616e206f6e6c792072656e6f756e636560448201526e103937b632b9903337b91039b2b63360891b60648201526084016107b9565b6108198282611c20565b6000610d24816114d2565b5061015f805460ff19166002179055565b60008051602061407e833981519152610d4d816114d2565b610d55611c87565b50565b6000610d63816114d2565b5061016055565b60608151835114610dcf5760405162461bcd60e51b815260206004820152602960248201527f455243313135353a206163636f756e747320616e6420696473206c656e677468604482015268040dad2e6dac2e8c6d60bb1b60648201526084016107b9565b600083516001600160401b03811115610dea57610dea612f64565b604051908082528060200260200182016040528015610e13578160200160208202803683370190505b50905060005b8451811015610e8b57610e5e858281518110610e3757610e376137f2565b6020026020010151858381518110610e5157610e516137f2565b6020026020010151610751565b828281518110610e7057610e706137f2565b6020908102919091010152610e8481613808565b9050610e19565b509392505050565b6001600160a01b038316331480610eaf5750610eaf83336106ce565b610ecb5760405162461bcd60e51b81526004016107b990613843565b610928838383611d1a565b61085a84848484611ea7565b6000610eee6001611f80565b90508015610f06576000805461ff0019166101001790555b610f276040518060800160405280605a815260200161409e605a9139612014565b610f2f612044565b610f3761206d565b610f3f612044565b610f47612044565b61016580546001600160a01b03191633908117909155610f69906000906118d8565b61016554610f8f9060008051602061405e833981519152906001600160a01b03166118d8565b61016554610fb59060008051602061407e833981519152906001600160a01b03166118d8565b61015f805460ff1916600117905566038d7ea4c68000610160556000610161819055610166558015610d55576000805461ff0019169055604051600181527f7f26b83ff96e1f2b6a682f133852f6798a09c465da95921460cefb38474024989060200160405180910390a150565b60008051602061407e83398151915261103b816114d2565b610d5561209c565b61015f5460ff1660011461108e5760405162461bcd60e51b81526020600482015260126024820152714e6f7420696e207075626c69632073616c6560701b60448201526064016107b9565b60008160ff16116110f95760405162461bcd60e51b815260206004820152602f60248201527f596f75206d757374206d696e74206174206c65617374206f6e65204e4654206660448201526e37b910383ab13634b19039b0b6329760891b60648201526084016107b9565b60098160ff166101615461110d9190613721565b111561112b5760405162461bcd60e51b81526004016107b990613739565b336000908152610163602052604090205460039061114d90839060ff1661377a565b60ff1611156111b95760405162461bcd60e51b815260206004820152603260248201527f596f75206d6179206d696e7420757020746f2033204e465473206f6e2074686560448201527110383ab13634b1903634b9ba1039b0b6329760711b60648201526084016107b9565b8060ff16610160546111cb919061379f565b34146111e95760405162461bcd60e51b81526004016107b9906137be565b60008160ff166001600160401b0381111561120657611206612f64565b60405190808252806020026020018201604052801561122f578160200160208202803683370190505b50905060008260ff166001600160401b0381111561124f5761124f612f64565b604051908082528060200260200182016040528015611278578160200160208202803683370190505b50905060005b8360ff168110156112e057611291611ae3565b8382815181106112a3576112a36137f2565b60200260200101818152505060018282815181106112c3576112c36137f2565b6020908102919091010152806112d881613808565b91505061127e565b506112fc3383836040518060200160405280600081525061084e565b8260ff1661016160008282546113129190613721565b909155505033600090815261016360205260408120805485929061133a90849060ff1661377a565b92506101000a81548160ff021916908360ff160217905550505050565b60009182526097602090815260408084206001600160a01b0393909316845291905290205460ff1690565b6108193383836120f4565b6000611398816114d2565b5061015f805460ff1916600117905566071afd498d000061016055565b60006113c0816114d2565b5061015f805460ff1916905566038d7ea4c6800061016055565b6113e382610860565b6113ec816114d2565b6109288383611c20565b6060604051806080016040528060608152602001613ffe60609139905090565b6001600160a01b038516331480611432575061143285336106ce565b61144e5760405162461bcd60e51b81526004016107b990613843565b61090585858585856121d5565b6001600160a01b038316331480611477575061147783336106ce565b6114935760405162461bcd60e51b81526004016107b990613843565b6109288383836122ff565b6001600160a01b03163b151590565b60006001600160e01b03198216637965db0b60e01b14806107e757506107e782612409565b610d558133612459565b8051610819906067906020840190612e57565b6060816115135750506040805180820190915260018152600360fc1b602082015290565b8160005b811561153d578061152781613808565b91506115369050600a836138a2565b9150611517565b6000816001600160401b0381111561155757611557612f64565b6040519080825280601f01601f191660200182016040528015611581576020820181803683370190505b5090505b84156115ec576115966001836138b6565b91506115a3600a866138cd565b6115ae906030613721565b60f81b8183815181106115c3576115c36137f2565b60200101906001600160f81b031916908160001a9053506115e5600a866138a2565b9450611585565b949350505050565b6001600160a01b03841661161a5760405162461bcd60e51b81526004016107b9906138e1565b815183511461163b5760405162461bcd60e51b81526004016107b990613922565b3361164b816000878787876124bd565b60005b84518110156116e757838181518110611669576116696137f2565b602002602001015160656000878481518110611687576116876137f2565b602002602001015181526020019081526020016000206000886001600160a01b03166001600160a01b0316815260200190815260200160002060008282546116cf9190613721565b909155508190506116df81613808565b91505061164e565b50846001600160a01b031660006001600160a01b0316826001600160a01b0316600080516020613fbe833981519152878760405161172692919061396a565b60405180910390a4610905816000878787876124ee565b815183511461175e5760405162461bcd60e51b81526004016107b990613922565b6001600160a01b0384166117845760405162461bcd60e51b81526004016107b990613998565b336117938187878787876124bd565b60005b845181101561187c5760008582815181106117b3576117b36137f2565b6020026020010151905060008583815181106117d1576117d16137f2565b60209081029190910181015160008481526065835260408082206001600160a01b038e1683529093529190912054909150818110156118225760405162461bcd60e51b81526004016107b9906139dd565b60008381526065602090815260408083206001600160a01b038e8116855292528083208585039055908b16825281208054849290611861908490613721565b925050819055505050508061187590613808565b9050611796565b50846001600160a01b0316866001600160a01b0316826001600160a01b0316600080516020613fbe83398151915287876040516118ba92919061396a565b60405180910390a46118d08187878787876124ee565b505050505050565b6118e28282611357565b6108195760008281526097602090815260408083206001600160a01b03851684529091529020805460ff1916600117905561191a3390565b6001600160a01b0316816001600160a01b0316837f2f8788117e7eff1d82e926ec794901d17c78024a50270940304540a733656f0d60405160405180910390a45050565b60408051602880825260608281019093526000919060208201818036833701905050905060005b6014811015611a9e57600061199b8260136138b6565b6119a690600861379f565b6119b1906002613b0b565b6119c4906001600160a01b0387166138a2565b60f81b9050600060108260f81c6119db9190613b17565b60f81b905060008160f81c60106119f29190613b39565b8360f81c611a009190613b5a565b60f81b9050611a0e82612651565b85611a1a86600261379f565b81518110611a2a57611a2a6137f2565b60200101906001600160f81b031916908160001a905350611a4a81612651565b85611a5686600261379f565b611a61906001613721565b81518110611a7157611a716137f2565b60200101906001600160f81b031916908160001a9053505050508080611a9690613808565b915050611985565b5060405180604001604052806002815260200161060f60f31b81525081604051602001611acc929190613b7d565b604051602081830303815290604052915050919050565b610166546000905b60098111611b3f576101668054906000611b0483613808565b9091555050610166546000908152610164602052604090205460ff16611b2d5750506101665490565b80611b3781613808565b915050611aeb565b5060405162461bcd60e51b815260206004820152601b60248201527a105b1b081d1bdad95b9cc81a185d99481899595b881b5a5b9d1959602a1b60448201526064016107b9565b6000806040518060400160405280601a8152602001790ca2ba3432b932bab69029b4b3b732b21026b2b9b9b0b3b29d0560311b81525090506000611bca84516114ef565b90506000828286604051602001611be393929190613bac565b60408051601f19818403018152919052805160209091012095945050505050565b6000806000611c138585612687565b91509150610e8b816126f7565b611c2a8282611357565b156108195760008281526097602090815260408083206001600160a01b0385168085529252808320805460ff1916905551339285917ff6391f5c32d9c69d2a47ea670b442974b53935d1edc7fd64eb21e047a839171b9190a45050565b60c95460ff16611cd05760405162461bcd60e51b815260206004820152601460248201527314185d5cd8589b194e881b9bdd081c185d5cd95960621b60448201526064016107b9565b60c9805460ff191690557f5db9ee0a495bf2e6ff9c91a7834c1ba4fdd244a5e8aa4e537bd38aeae4b073aa335b6040516001600160a01b03909116815260200160405180910390a1565b6001600160a01b038316611d405760405162461bcd60e51b81526004016107b990613bef565b8051825114611d615760405162461bcd60e51b81526004016107b990613922565b6000339050611d84818560008686604051806020016040528060008152506124bd565b60005b8351811015611e4c576000848281518110611da457611da46137f2565b602002602001015190506000848381518110611dc257611dc26137f2565b60209081029190910181015160008481526065835260408082206001600160a01b038c168352909352919091205490915081811015611e135760405162461bcd60e51b81526004016107b990613c32565b60009283526065602090815260408085206001600160a01b038b1686529091529092209103905580611e4481613808565b915050611d87565b5060006001600160a01b0316846001600160a01b0316826001600160a01b0316600080516020613fbe8339815191528686604051611e8b92919061396a565b60405180910390a460408051602081019091526000905261085a565b6001600160a01b038416611ecd5760405162461bcd60e51b81526004016107b9906138e1565b336000611ed9856128ad565b90506000611ee6856128ad565b9050611ef7836000898585896124bd565b60008681526065602090815260408083206001600160a01b038b16845290915281208054879290611f29908490613721565b909155505060408051878152602081018790526001600160a01b03808a169260009291871691600080516020613fde833981519152910160405180910390a4611f77836000898989896128f8565b50505050505050565b60008054610100900460ff1615611fce578160ff166001148015611faa5750611fa83061149e565b155b611fc65760405162461bcd60e51b81526004016107b990613c76565b506000919050565b60005460ff808416911610611ff55760405162461bcd60e51b81526004016107b990613c76565b506000805460ff191660ff92909216919091179055600190565b919050565b600054610100900460ff1661203b5760405162461bcd60e51b81526004016107b990613cc4565b610d55816129ba565b600054610100900460ff1661206b5760405162461bcd60e51b81526004016107b990613cc4565b565b600054610100900460ff166120945760405162461bcd60e51b81526004016107b990613cc4565b61206b6129ea565b60c95460ff16156120bf5760405162461bcd60e51b81526004016107b990613d0f565b60c9805460ff191660011790557f62e78cea01bee320cd4e420270b5ea74000d11b0c9f74754ebdbfc544b05a258611cfd3390565b816001600160a01b0316836001600160a01b031614156121685760405162461bcd60e51b815260206004820152602960248201527f455243313135353a2073657474696e6720617070726f76616c20737461747573604482015268103337b91039b2b63360b91b60648201526084016107b9565b6001600160a01b03838116600081815260666020908152604080832094871680845294825291829020805460ff191686151590811790915591519182527f17307eab39ab6107e8899845ad3d59bd9653f200f220920489ca2b5937696c31910160405180910390a3505050565b6001600160a01b0384166121fb5760405162461bcd60e51b81526004016107b990613998565b336000612207856128ad565b90506000612214856128ad565b90506122248389898585896124bd565b60008681526065602090815260408083206001600160a01b038c168452909152902054858110156122675760405162461bcd60e51b81526004016107b9906139dd565b60008781526065602090815260408083206001600160a01b038d8116855292528083208985039055908a168252812080548892906122a6908490613721565b909155505060408051888152602081018890526001600160a01b03808b16928c82169291881691600080516020613fde833981519152910160405180910390a46122f4848a8a8a8a8a6128f8565b505050505050505050565b6001600160a01b0383166123255760405162461bcd60e51b81526004016107b990613bef565b336000612331846128ad565b9050600061233e846128ad565b905061235e838760008585604051806020016040528060008152506124bd565b60008581526065602090815260408083206001600160a01b038a168452909152902054848110156123a15760405162461bcd60e51b81526004016107b990613c32565b60008681526065602090815260408083206001600160a01b038b81168086529184528285208a8703905582518b81529384018a9052909290881691600080516020613fde833981519152910160405180910390a4604080516020810190915260009052611f77565b60006001600160e01b03198216636cdb3d1360e11b148061243a57506001600160e01b031982166303a24d0760e21b145b806107e757506301ffc9a760e01b6001600160e01b03198316146107e7565b6124638282611357565b6108195761247b816001600160a01b03166014612a1d565b612486836020612a1d565b604051602001612497929190613d39565b60408051601f198184030181529082905262461bcd60e51b82526107b9916004016130be565b60c95460ff16156124e05760405162461bcd60e51b81526004016107b990613d0f565b6118d0868686868686612bbf565b612500846001600160a01b031661149e565b156118d05760405163bc197c8160e01b81526001600160a01b0385169063bc197c81906125399089908990889088908890600401613da8565b6020604051808303816000875af1925050508015612574575060408051601f3d908101601f1916820190925261257191810190613e06565b60015b61262157612580613e23565b806308c379a014156125ba5750612595613e3f565b806125a057506125bc565b8060405162461bcd60e51b81526004016107b991906130be565b505b60405162461bcd60e51b815260206004820152603460248201527f455243313135353a207472616e7366657220746f206e6f6e20455243313135356044820152732932b1b2b4bb32b91034b6b83632b6b2b73a32b960611b60648201526084016107b9565b6001600160e01b0319811663bc197c8160e01b14611f775760405162461bcd60e51b81526004016107b990613ec8565b6000600a60f883901c10156126785761266f60f883901c603061377a565b60f81b92915050565b61266f60f883901c605761377a565b6000808251604114156126be5760208301516040840151606085015160001a6126b287828585612d3b565b945094505050506126f0565b8251604014156126e857602083015160408401516126dd868383612e1e565b9350935050506126f0565b506000905060025b9250929050565b600081600481111561270b5761270b613f10565b14156127145750565b600181600481111561272857612728613f10565b14156127715760405162461bcd60e51b815260206004820152601860248201527745434453413a20696e76616c6964207369676e617475726560401b60448201526064016107b9565b600281600481111561278557612785613f10565b14156127d35760405162461bcd60e51b815260206004820152601f60248201527f45434453413a20696e76616c6964207369676e6174757265206c656e6774680060448201526064016107b9565b60038160048111156127e7576127e7613f10565b14156128405760405162461bcd60e51b815260206004820152602260248201527f45434453413a20696e76616c6964207369676e6174757265202773272076616c604482015261756560f01b60648201526084016107b9565b600481600481111561285457612854613f10565b1415610d555760405162461bcd60e51b815260206004820152602260248201527f45434453413a20696e76616c6964207369676e6174757265202776272076616c604482015261756560f01b60648201526084016107b9565b604080516001808252818301909252606091600091906020808301908036833701905050905082816000815181106128e7576128e76137f2565b602090810291909101015292915050565b61290a846001600160a01b031661149e565b156118d05760405163f23a6e6160e01b81526001600160a01b0385169063f23a6e61906129439089908990889088908890600401613f26565b6020604051808303816000875af192505050801561297e575060408051601f3d908101601f1916820190925261297b91810190613e06565b60015b61298a57612580613e23565b6001600160e01b0319811663f23a6e6160e01b14611f775760405162461bcd60e51b81526004016107b990613ec8565b600054610100900460ff166129e15760405162461bcd60e51b81526004016107b990613cc4565b610d55816114dc565b600054610100900460ff16612a115760405162461bcd60e51b81526004016107b990613cc4565b60c9805460ff19169055565b60606000612a2c83600261379f565b612a37906002613721565b6001600160401b03811115612a4e57612a4e612f64565b6040519080825280601f01601f191660200182016040528015612a78576020820181803683370190505b509050600360fc1b81600081518110612a9357612a936137f2565b60200101906001600160f81b031916908160001a905350600f60fb1b81600181518110612ac257612ac26137f2565b60200101906001600160f81b031916908160001a9053506000612ae684600261379f565b612af1906001613721565b90505b6001811115612b69576f181899199a1a9b1b9c1cb0b131b232b360811b85600f1660108110612b2557612b256137f2565b1a60f81b828281518110612b3b57612b3b6137f2565b60200101906001600160f81b031916908160001a90535060049490941c93612b6281613f6b565b9050612af4565b508315612bb85760405162461bcd60e51b815260206004820181905260248201527f537472696e67733a20686578206c656e67746820696e73756666696369656e7460448201526064016107b9565b9392505050565b6001600160a01b038516612c475760005b8351811015612c4557828181518110612beb57612beb6137f2565b602002602001015161012d6000868481518110612c0a57612c0a6137f2565b602002602001015181526020019081526020016000206000828254612c2f9190613721565b90915550612c3e905081613808565b9050612bd0565b505b6001600160a01b0384166118d05760005b8351811015611f77576000848281518110612c7557612c756137f2565b602002602001015190506000848381518110612c9357612c936137f2565b60200260200101519050600061012d600084815260200190815260200160002054905081811015612d175760405162461bcd60e51b815260206004820152602860248201527f455243313135353a206275726e20616d6f756e74206578636565647320746f74604482015267616c537570706c7960c01b60648201526084016107b9565b600092835261012d602052604090922091039055612d3481613808565b9050612c58565b6000806fa2a8918ca85bafe22016d0b997e4df60600160ff1b03831115612d685750600090506003612e15565b8460ff16601b14158015612d8057508460ff16601c14155b15612d915750600090506004612e15565b6040805160008082526020820180845289905260ff881692820192909252606081018690526080810185905260019060a0016020604051602081039080840390855afa158015612de5573d6000803e3d6000fd5b5050604051601f1901519150506001600160a01b038116612e0e57600060019250925050612e15565b9150600090505b94509492505050565b6000806001600160ff1b03831681612e3b60ff86901c601b613721565b9050612e4987828885612d3b565b935093505050935093915050565b828054612e6390613f82565b90600052602060002090601f016020900481019282612e855760008555612ecb565b82601f10612e9e57805160ff1916838001178555612ecb565b82800160010185558215612ecb579182015b82811115612ecb578251825591602001919060010190612eb0565b50612ed7929150612edb565b5090565b5b80821115612ed75760008155600101612edc565b80356001600160a01b038116811461200f57600080fd5b60008060408385031215612f1a57600080fd5b612f2383612ef0565b946020939093013593505050565b6001600160e01b031981168114610d5557600080fd5b600060208284031215612f5957600080fd5b8135612bb881612f31565b634e487b7160e01b600052604160045260246000fd5b601f8201601f191681016001600160401b0381118282101715612f9f57612f9f612f64565b6040525050565b600082601f830112612fb757600080fd5b81356001600160401b03811115612fd057612fd0612f64565b604051612fe7601f8301601f191660200182612f7a565b818152846020838601011115612ffc57600080fd5b816020850160208301376000918101602001919091529392505050565b60006020828403121561302b57600080fd5b81356001600160401b0381111561304157600080fd5b6115ec84828501612fa6565b60006020828403121561305f57600080fd5b5035919050565b60005b83811015613081578181015183820152602001613069565b8381111561085a5750506000910152565b600081518084526130aa816020860160208601613066565b601f01601f19169290920160200192915050565b602081526000612bb86020830184613092565b60006001600160401b038211156130ea576130ea612f64565b5060051b60200190565b600082601f83011261310557600080fd5b81356020613112826130d1565b60405161311f8282612f7a565b83815260059390931b850182019282810191508684111561313f57600080fd5b8286015b8481101561315a5780358352918301918301613143565b509695505050505050565b6000806000806080858703121561317b57600080fd5b61318485612ef0565b935060208501356001600160401b03808211156131a057600080fd5b6131ac888389016130f4565b945060408701359150808211156131c257600080fd5b6131ce888389016130f4565b935060608701359150808211156131e457600080fd5b506131f187828801612fa6565b91505092959194509250565b600080600080600060a0868803121561321557600080fd5b61321e86612ef0565b945061322c60208701612ef0565b935060408601356001600160401b038082111561324857600080fd5b61325489838a016130f4565b9450606088013591508082111561326a57600080fd5b61327689838a016130f4565b9350608088013591508082111561328c57600080fd5b5061329988828901612fa6565b9150509295509295909350565b600080604083850312156132b957600080fd5b823591506132c960208401612ef0565b90509250929050565b803560ff8116811461200f57600080fd5b600080604083850312156132f657600080fd5b82356001600160401b0381111561330c57600080fd5b61331885828601612fa6565b9250506132c9602084016132d2565b6000806040838503121561333a57600080fd5b82356001600160401b038082111561335157600080fd5b61335d86838701612fa6565b9350602085013591508082111561337357600080fd5b5061338085828601612fa6565b9150509250929050565b6000806040838503121561339d57600080fd5b82356001600160401b03808211156133b457600080fd5b818501915085601f8301126133c857600080fd5b813560206133d5826130d1565b6040516133e28282612f7a565b83815260059390931b850182019282810191508984111561340257600080fd5b948201945b838610156134275761341886612ef0565b82529482019490820190613407565b9650508601359250508082111561343d57600080fd5b50613380858286016130f4565b600081518084526020808501945080840160005b8381101561347a5781518752958201959082019060010161345e565b509495945050505050565b602081526000612bb8602083018461344a565b6000806000606084860312156134ad57600080fd5b6134b684612ef0565b925060208401356001600160401b03808211156134d257600080fd5b6134de878388016130f4565b935060408601359150808211156134f457600080fd5b50613501868287016130f4565b9150509250925092565b6000806000806080858703121561352157600080fd5b61352a85612ef0565b9350602085013592506040850135915060608501356001600160401b0381111561355357600080fd5b6131f187828801612fa6565b60006020828403121561357157600080fd5b612bb8826132d2565b6000806040838503121561358d57600080fd5b61359683612ef0565b9150602083013580151581146135ab57600080fd5b809150509250929050565b600080604083850312156135c957600080fd5b6135d283612ef0565b91506132c960208401612ef0565b600080600080600060a086880312156135f857600080fd5b61360186612ef0565b945061360f60208701612ef0565b9350604086013592506060860135915060808601356001600160401b0381111561363857600080fd5b61329988828901612fa6565b60008060006060848603121561365957600080fd5b61366284612ef0565b95602085013595506040909401359392505050565b7f68747470733a2f2f697066732e696f2f697066732f6261667962656963786c7281527f72716d356c367571746e67666d6467727a7a71726b6c7532766471776733647860208201527033326663717066666837717972796a752f60781b6040820152600082516136ef816051850160208701613066565b64173539b7b760d91b6051939091019283015250605601919050565b634e487b7160e01b600052601160045260246000fd5b600082198211156137345761373461370b565b500190565b60208082526021908201527f507572636861736520776f756c6420657863656564206d617820737570706c796040820152601760f91b606082015260800190565b600060ff821660ff84168060ff038211156137975761379761370b565b019392505050565b60008160001904831182151516156137b9576137b961370b565b500290565b6020808252601a90820152792cb7ba9036bab9ba103830bc903337b9103cb7bab91027232a1760311b604082015260600190565b634e487b7160e01b600052603260045260246000fd5b600060001982141561381c5761381c61370b565b5060010190565b600060ff821660ff81141561383a5761383a61370b565b60010192915050565b60208082526029908201527f455243313135353a2063616c6c6572206973206e6f74206f776e6572206e6f7260408201526808185c1c1c9bdd995960ba1b606082015260800190565b634e487b7160e01b600052601260045260246000fd5b6000826138b1576138b161388c565b500490565b6000828210156138c8576138c861370b565b500390565b6000826138dc576138dc61388c565b500690565b60208082526021908201527f455243313135353a206d696e7420746f20746865207a65726f206164647265736040820152607360f81b606082015260800190565b60208082526028908201527f455243313135353a2069647320616e6420616d6f756e7473206c656e677468206040820152670dad2e6dac2e8c6d60c31b606082015260800190565b60408152600061397d604083018561344a565b828103602084015261398f818561344a565b95945050505050565b60208082526025908201527f455243313135353a207472616e7366657220746f20746865207a65726f206164604082015264647265737360d81b606082015260800190565b6020808252602a908201527f455243313135353a20696e73756666696369656e742062616c616e636520666f60408201526939103a3930b739b332b960b11b606082015260800190565b600181815b80851115613a62578160001904821115613a4857613a4861370b565b80851615613a5557918102915b93841c9390800290613a2c565b509250929050565b600082613a79575060016107e7565b81613a86575060006107e7565b8160018114613a9c5760028114613aa657613ac2565b60019150506107e7565b60ff841115613ab757613ab761370b565b50506001821b6107e7565b5060208310610133831016604e8410600b8410161715613ae5575081810a6107e7565b613aef8383613a27565b8060001904821115613b0357613b0361370b565b029392505050565b6000612bb88383613a6a565b600060ff831680613b2a57613b2a61388c565b8060ff84160491505092915050565b600060ff821660ff84168160ff0481118215151615613b0357613b0361370b565b600060ff821660ff841680821015613b7457613b7461370b565b90039392505050565b60008351613b8f818460208801613066565b835190830190613ba3818360208801613066565b01949350505050565b60008451613bbe818460208901613066565b845190830190613bd2818360208901613066565b8451910190613be5818360208801613066565b0195945050505050565b60208082526023908201527f455243313135353a206275726e2066726f6d20746865207a65726f206164647260408201526265737360e81b606082015260800190565b60208082526024908201527f455243313135353a206275726e20616d6f756e7420657863656564732062616c604082015263616e636560e01b606082015260800190565b6020808252602e908201527f496e697469616c697a61626c653a20636f6e747261637420697320616c72656160408201526d191e481a5b9a5d1a585b1a5e995960921b606082015260800190565b6020808252602b908201527f496e697469616c697a61626c653a20636f6e7472616374206973206e6f74206960408201526a6e697469616c697a696e6760a81b606082015260800190565b60208082526010908201526f14185d5cd8589b194e881c185d5cd95960821b604082015260600190565b76020b1b1b2b9b9a1b7b73a3937b61d1030b1b1b7bab73a1604d1b815260008351613d6b816017850160208801613066565b7001034b99036b4b9b9b4b733903937b6329607d1b6017918401918201528351613d9c816028840160208801613066565b01602801949350505050565b6001600160a01b0386811682528516602082015260a060408201819052600090613dd49083018661344a565b8281036060840152613de6818661344a565b90508281036080840152613dfa8185613092565b98975050505050505050565b600060208284031215613e1857600080fd5b8151612bb881612f31565b600060033d1115613e3c5760046000803e5060005160e01c5b90565b600060443d1015613e4d5790565b6040516003193d81016004833e81513d6001600160401b038083116024840183101715613e7c57505050505090565b8285019150815181811115613e945750505050505090565b843d8701016020828501011115613eae5750505050505090565b613ebd60208286010187612f7a565b509095945050505050565b60208082526028908201527f455243313135353a204552433131353552656365697665722072656a656374656040820152676420746f6b656e7360c01b606082015260800190565b634e487b7160e01b600052602160045260246000fd5b6001600160a01b03868116825285166020820152604081018490526060810183905260a060808201819052600090613f6090830184613092565b979650505050505050565b600081613f7a57613f7a61370b565b506000190190565b600181811c90821680613f9657607f821691505b60208210811415613fb757634e487b7160e01b600052602260045260246000fd5b5091905056fe4a39dc06d4c0dbc64b70af90fd698a233a518aa5d07e595d983b8c0526c8f7fbc3d58168c5ae7397731d063d5bbf3d657854427343f4c083240f7aacaa2d0f6268747470733a2f2f697066732e696f2f697066732f626166796265696469753337726d676b62787332707637677965777678376d6279626d3776633361347a7663636f6c7337353663693479746434752f636f6c6c656374696f6e2e6a736f6e7804d923f43a17d325d77e781528e0793b2edd9890ab45fc64efd7b4b427744c65d7a28e3265b37a6474929f336521b332c1681b933f6cb9f3376673440d862a68747470733a2f2f697066732e696f2f697066732f6261667962656963786c7272716d356c367571746e67666d6467727a7a71726b6c7532766471776733647833326663717066666837717972796a752f7b69647d2e6a736f6ea2646970667358221220e1805fe38d6fdf45580e9ca471724b5869131e697577d16aa10ec584465880af64736f6c634300080a0033",
  "linkReferences": {},
  "deployedLinkReferences": {}
}